{
  "_format": "hh-sol-artifact-1",
  "contractName": "BlackBoxCollectiveAccessPass",
  "sourceName": "contracts/BlackBoxCollectiveAccessPass.sol",
  "abi": [
    {
      "inputs": [],
      "stateMutability": "nonpayable",
      "type": "constructor"
    },
    {
      "anonymous": false,
      "inputs": [
        {
          "indexed": true,
          "internalType": "address",
          "name": "owner",
          "type": "address"
        },
        {
          "indexed": true,
          "internalType": "address",
          "name": "approved",
          "type": "address"
        },
        {
          "indexed": true,
          "internalType": "uint256",
          "name": "tokenId",
          "type": "uint256"
        }
      ],
      "name": "Approval",
      "type": "event"
    },
    {
      "anonymous": false,
      "inputs": [
        {
          "indexed": true,
          "internalType": "address",
          "name": "owner",
          "type": "address"
        },
        {
          "indexed": true,
          "internalType": "address",
          "name": "operator",
          "type": "address"
        },
        {
          "indexed": false,
          "internalType": "bool",
          "name": "approved",
          "type": "bool"
        }
      ],
      "name": "ApprovalForAll",
      "type": "event"
    },
    {
      "anonymous": false,
      "inputs": [
        {
          "indexed": true,
          "internalType": "address",
          "name": "previousOwner",
          "type": "address"
        },
        {
          "indexed": true,
          "internalType": "address",
          "name": "newOwner",
          "type": "address"
        }
      ],
      "name": "OwnershipTransferred",
      "type": "event"
    },
    {
      "anonymous": false,
      "inputs": [
        {
          "indexed": true,
          "internalType": "address",
          "name": "from",
          "type": "address"
        },
        {
          "indexed": true,
          "internalType": "address",
          "name": "to",
          "type": "address"
        },
        {
          "indexed": true,
          "internalType": "uint256",
          "name": "tokenId",
          "type": "uint256"
        }
      ],
      "name": "Transfer",
      "type": "event"
    },
    {
      "inputs": [],
      "name": "MAX_ACCESS_PASS",
      "outputs": [
        {
          "internalType": "uint256",
          "name": "",
          "type": "uint256"
        }
      ],
      "stateMutability": "view",
      "type": "function"
    },
    {
      "inputs": [
        {
          "internalType": "address",
          "name": "_address",
          "type": "address"
        },
        {
          "internalType": "uint256",
          "name": "_amount",
          "type": "uint256"
        }
      ],
      "name": "_widthdraw",
      "outputs": [],
      "stateMutability": "nonpayable",
      "type": "function"
    },
    {
      "inputs": [
        {
          "internalType": "address",
          "name": "to",
          "type": "address"
        },
        {
          "internalType": "uint256",
          "name": "tokenId",
          "type": "uint256"
        }
      ],
      "name": "approve",
      "outputs": [],
      "stateMutability": "nonpayable",
      "type": "function"
    },
    {
      "inputs": [
        {
          "internalType": "address",
          "name": "owner",
          "type": "address"
        }
      ],
      "name": "balanceOf",
      "outputs": [
        {
          "internalType": "uint256",
          "name": "",
          "type": "uint256"
        }
      ],
      "stateMutability": "view",
      "type": "function"
    },
    {
      "inputs": [],
      "name": "baseURI",
      "outputs": [
        {
          "internalType": "string",
          "name": "",
          "type": "string"
        }
      ],
      "stateMutability": "view",
      "type": "function"
    },
    {
      "inputs": [
        {
          "internalType": "uint256",
          "name": "tokenId",
          "type": "uint256"
        }
      ],
      "name": "burn",
      "outputs": [],
      "stateMutability": "nonpayable",
      "type": "function"
    },
    {
      "inputs": [],
      "name": "contractBalance",
      "outputs": [
        {
          "internalType": "uint256",
          "name": "",
          "type": "uint256"
        }
      ],
      "stateMutability": "view",
      "type": "function"
    },
    {
      "inputs": [],
      "name": "flipSale",
      "outputs": [],
      "stateMutability": "nonpayable",
      "type": "function"
    },
    {
      "inputs": [
        {
          "internalType": "uint256",
          "name": "tokenId",
          "type": "uint256"
        }
      ],
      "name": "getApproved",
      "outputs": [
        {
          "internalType": "address",
          "name": "",
          "type": "address"
        }
      ],
      "stateMutability": "view",
      "type": "function"
    },
    {
      "inputs": [
        {
          "internalType": "address",
          "name": "owner",
          "type": "address"
        },
        {
          "internalType": "address",
          "name": "operator",
          "type": "address"
        }
      ],
      "name": "isApprovedForAll",
      "outputs": [
        {
          "internalType": "bool",
          "name": "",
          "type": "bool"
        }
      ],
      "stateMutability": "view",
      "type": "function"
    },
    {
      "inputs": [],
      "name": "maxPassTxn",
      "outputs": [
        {
          "internalType": "uint256",
          "name": "",
          "type": "uint256"
        }
      ],
      "stateMutability": "view",
      "type": "function"
    },
    {
      "inputs": [
        {
          "internalType": "uint256",
          "name": "numberOfTokens",
          "type": "uint256"
        }
      ],
      "name": "mintAccessPass",
      "outputs": [],
      "stateMutability": "payable",
      "type": "function"
    },
    {
      "inputs": [],
      "name": "name",
      "outputs": [
        {
          "internalType": "string",
          "name": "",
          "type": "string"
        }
      ],
      "stateMutability": "view",
      "type": "function"
    },
    {
      "inputs": [],
      "name": "owner",
      "outputs": [
        {
          "internalType": "address",
          "name": "",
          "type": "address"
        }
      ],
      "stateMutability": "view",
      "type": "function"
    },
    {
      "inputs": [
        {
          "internalType": "uint256",
          "name": "tokenId",
          "type": "uint256"
        }
      ],
      "name": "ownerOf",
      "outputs": [
        {
          "internalType": "address",
          "name": "",
          "type": "address"
        }
      ],
      "stateMutability": "view",
      "type": "function"
    },
    {
      "inputs": [],
      "name": "passPrice",
      "outputs": [
        {
          "internalType": "uint256",
          "name": "",
          "type": "uint256"
        }
      ],
      "stateMutability": "view",
      "type": "function"
    },
    {
      "inputs": [],
      "name": "renounceOwnership",
      "outputs": [],
      "stateMutability": "nonpayable",
      "type": "function"
    },
    {
      "inputs": [
        {
          "internalType": "uint256",
          "name": "reserveAmount",
          "type": "uint256"
        },
        {
          "internalType": "address",
          "name": "mintAddress",
          "type": "address"
        }
      ],
      "name": "reserveMintPass",
      "outputs": [],
      "stateMutability": "nonpayable",
      "type": "function"
    },
    {
      "inputs": [
        {
          "internalType": "address",
          "name": "from",
          "type": "address"
        },
        {
          "internalType": "address",
          "name": "to",
          "type": "address"
        },
        {
          "internalType": "uint256",
          "name": "tokenId",
          "type": "uint256"
        }
      ],
      "name": "safeTransferFrom",
      "outputs": [],
      "stateMutability": "nonpayable",
      "type": "function"
    },
    {
      "inputs": [
        {
          "internalType": "address",
          "name": "from",
          "type": "address"
        },
        {
          "internalType": "address",
          "name": "to",
          "type": "address"
        },
        {
          "internalType": "uint256",
          "name": "tokenId",
          "type": "uint256"
        },
        {
          "internalType": "bytes",
          "name": "_data",
          "type": "bytes"
        }
      ],
      "name": "safeTransferFrom",
      "outputs": [],
      "stateMutability": "nonpayable",
      "type": "function"
    },
    {
      "inputs": [],
      "name": "saleIsActive",
      "outputs": [
        {
          "internalType": "bool",
          "name": "",
          "type": "bool"
        }
      ],
      "stateMutability": "view",
      "type": "function"
    },
    {
      "inputs": [
        {
          "internalType": "address",
          "name": "operator",
          "type": "address"
        },
        {
          "internalType": "bool",
          "name": "approved",
          "type": "bool"
        }
      ],
      "name": "setApprovalForAll",
      "outputs": [],
      "stateMutability": "nonpayable",
      "type": "function"
    },
    {
      "inputs": [
        {
          "internalType": "string",
          "name": "newBaseURI",
          "type": "string"
        }
      ],
      "name": "setBaseURI",
      "outputs": [],
      "stateMutability": "nonpayable",
      "type": "function"
    },
    {
      "inputs": [
        {
          "internalType": "address",
          "name": "manager",
          "type": "address"
        }
      ],
      "name": "setManager",
      "outputs": [],
      "stateMutability": "nonpayable",
      "type": "function"
    },
    {
      "inputs": [
        {
          "internalType": "uint256",
          "name": "_maxSupply",
          "type": "uint256"
        }
      ],
      "name": "setMaxSupply",
      "outputs": [],
      "stateMutability": "nonpayable",
      "type": "function"
    },
    {
      "inputs": [
        {
          "internalType": "uint256",
          "name": "_price",
          "type": "uint256"
        }
      ],
      "name": "setPrice",
      "outputs": [],
      "stateMutability": "nonpayable",
      "type": "function"
    },
    {
      "inputs": [],
      "name": "stateSale",
      "outputs": [
        {
          "internalType": "bool",
          "name": "",
          "type": "bool"
        }
      ],
      "stateMutability": "view",
      "type": "function"
    },
    {
      "inputs": [
        {
          "internalType": "bytes4",
          "name": "interfaceId",
          "type": "bytes4"
        }
      ],
      "name": "supportsInterface",
      "outputs": [
        {
          "internalType": "bool",
          "name": "",
          "type": "bool"
        }
      ],
      "stateMutability": "view",
      "type": "function"
    },
    {
      "inputs": [],
      "name": "symbol",
      "outputs": [
        {
          "internalType": "string",
          "name": "",
          "type": "string"
        }
      ],
      "stateMutability": "view",
      "type": "function"
    },
    {
      "inputs": [
        {
          "internalType": "uint256",
          "name": "index",
          "type": "uint256"
        }
      ],
      "name": "tokenByIndex",
      "outputs": [
        {
          "internalType": "uint256",
          "name": "",
          "type": "uint256"
        }
      ],
      "stateMutability": "view",
      "type": "function"
    },
    {
      "inputs": [
        {
          "internalType": "address",
          "name": "owner",
          "type": "address"
        },
        {
          "internalType": "uint256",
          "name": "index",
          "type": "uint256"
        }
      ],
      "name": "tokenOfOwnerByIndex",
      "outputs": [
        {
          "internalType": "uint256",
          "name": "",
          "type": "uint256"
        }
      ],
      "stateMutability": "view",
      "type": "function"
    },
    {
      "inputs": [
        {
          "internalType": "uint256",
          "name": "tokenId",
          "type": "uint256"
        }
      ],
      "name": "tokenURI",
      "outputs": [
        {
          "internalType": "string",
          "name": "",
          "type": "string"
        }
      ],
      "stateMutability": "view",
      "type": "function"
    },
    {
      "inputs": [],
      "name": "totalSupply",
      "outputs": [
        {
          "internalType": "uint256",
          "name": "",
          "type": "uint256"
        }
      ],
      "stateMutability": "view",
      "type": "function"
    },
    {
      "inputs": [],
      "name": "totalToken",
      "outputs": [
        {
          "internalType": "uint256",
          "name": "",
          "type": "uint256"
        }
      ],
      "stateMutability": "view",
      "type": "function"
    },
    {
      "inputs": [
        {
          "internalType": "address",
          "name": "from",
          "type": "address"
        },
        {
          "internalType": "address",
          "name": "to",
          "type": "address"
        },
        {
          "internalType": "uint256",
          "name": "tokenId",
          "type": "uint256"
        }
      ],
      "name": "transferFrom",
      "outputs": [],
      "stateMutability": "nonpayable",
      "type": "function"
    },
    {
      "inputs": [
        {
          "internalType": "address",
          "name": "newOwner",
          "type": "address"
        }
      ],
      "name": "transferOwnership",
      "outputs": [],
      "stateMutability": "nonpayable",
      "type": "function"
    },
    {
      "inputs": [
        {
          "internalType": "address",
          "name": "_address",
          "type": "address"
        }
      ],
      "name": "withdrawAll",
      "outputs": [],
      "stateMutability": "nonpayable",
      "type": "function"
    }
  ],
  "bytecode": "0x6080604052610dac600c55671b0fcaab20030000600d556000600f60006101000a81548160ff0219169083151502179055503480156200003e57600080fd5b506040518060400160405280601481526020017f424c41434b20424f5820434f4c4c4543544956450000000000000000000000008152506040518060400160405280600b81526020017f41434345535320504153530000000000000000000000000000000000000000008152508160009080519060200190620000c3929190620001d3565b508060019080519060200190620000dc929190620001d3565b505050620000ff620000f36200010560201b60201c565b6200010d60201b60201c565b620002e8565b600033905090565b6000600a60009054906101000a900473ffffffffffffffffffffffffffffffffffffffff16905081600a60006101000a81548173ffffffffffffffffffffffffffffffffffffffff021916908373ffffffffffffffffffffffffffffffffffffffff1602179055508173ffffffffffffffffffffffffffffffffffffffff168173ffffffffffffffffffffffffffffffffffffffff167f8be0079c531659141344cd1fd0a4f28419497f9722a3daafe3b4186f6b6457e060405160405180910390a35050565b828054620001e19062000283565b90600052602060002090601f01602090048101928262000205576000855562000251565b82601f106200022057805160ff191683800117855562000251565b8280016001018555821562000251579182015b828111156200025057825182559160200191906001019062000233565b5b50905062000260919062000264565b5090565b5b808211156200027f57600081600090555060010162000265565b5090565b600060028204905060018216806200029c57607f821691505b60208210811415620002b357620002b2620002b9565b5b50919050565b7f4e487b7100000000000000000000000000000000000000000000000000000000600052602260045260246000fd5b614ec380620002f86000396000f3fe60806040526004361061021a5760003560e01c8063728e0c3d11610123578063b88d4fde116100ab578063d0ebdbe71161006f578063d0ebdbe7146107b0578063e985e9c5146107d9578063eb8d244414610816578063f2fde38b14610841578063fa09e6301461086a5761021a565b8063b88d4fde146106c9578063c4d6a1fb146106f2578063c87b56dd1461071d578063ca3286f51461075a578063cf1582e8146107855761021a565b806391b7f5ed116100f257806391b7f5ed1461060757806395d89b4114610630578063a22cb4651461065b578063ae9de7f614610684578063b4e380d5146106a05761021a565b8063728e0c3d1461056f5780637ba5e6211461059a5780638b7afe2e146105b15780638da5cb5b146105dc5761021a565b806342966c68116101a65780636352211e116101755780636352211e1461048a5780636c0360eb146104c75780636f8b44b0146104f257806370a082311461051b578063715018a6146105585761021a565b806342966c68146103d05780634f6ccce7146103f957806355f804b314610436578063626be5671461045f5761021a565b806318160ddd116101ed57806318160ddd146102ed57806323b872dd146103185780632f745c59146103415780633f0ab9181461037e57806342842e0e146103a75761021a565b806301ffc9a71461021f57806306fdde031461025c578063081812fc14610287578063095ea7b3146102c4575b600080fd5b34801561022b57600080fd5b506102466004803603810190610241919061385f565b610893565b6040516102539190613ebe565b60405180910390f35b34801561026857600080fd5b506102716108a5565b60405161027e9190613ed9565b60405180910390f35b34801561029357600080fd5b506102ae60048036038101906102a991906138f2565b610937565b6040516102bb9190613e57565b60405180910390f35b3480156102d057600080fd5b506102eb60048036038101906102e69190613823565b6109bc565b005b3480156102f957600080fd5b50610302610ad4565b60405161030f919061427b565b60405180910390f35b34801561032457600080fd5b5061033f600480360381019061033a919061371d565b610ae1565b005b34801561034d57600080fd5b5061036860048036038101906103639190613823565b610b41565b604051610375919061427b565b60405180910390f35b34801561038a57600080fd5b506103a560048036038101906103a0919061391b565b610be6565b005b3480156103b357600080fd5b506103ce60048036038101906103c9919061371d565b610d64565b005b3480156103dc57600080fd5b506103f760048036038101906103f291906138f2565b610d84565b005b34801561040557600080fd5b50610420600480360381019061041b91906138f2565b610de0565b60405161042d919061427b565b60405180910390f35b34801561044257600080fd5b5061045d600480360381019061045891906138b1565b610e77565b005b34801561046b57600080fd5b50610474610f6c565b604051610481919061427b565b60405180910390f35b34801561049657600080fd5b506104b160048036038101906104ac91906138f2565b610f7d565b6040516104be9190613e57565b60405180910390f35b3480156104d357600080fd5b506104dc61102f565b6040516104e99190613ed9565b60405180910390f35b3480156104fe57600080fd5b50610519600480360381019061051491906138f2565b6110bd565b005b34801561052757600080fd5b50610542600480360381019061053d91906136b8565b6111a2565b60405161054f919061427b565b60405180910390f35b34801561056457600080fd5b5061056d61125a565b005b34801561057b57600080fd5b506105846112e2565b604051610591919061427b565b60405180910390f35b3480156105a657600080fd5b506105af6112e8565b005b3480156105bd57600080fd5b506105c66113ef565b6040516105d3919061427b565b60405180910390f35b3480156105e857600080fd5b506105f16114d2565b6040516105fe9190613e57565b60405180910390f35b34801561061357600080fd5b5061062e600480360381019061062991906138f2565b6114fc565b005b34801561063c57600080fd5b506106456115e1565b6040516106529190613ed9565b60405180910390f35b34801561066757600080fd5b50610682600480360381019061067d91906137e7565b611673565b005b61069e600480360381019061069991906138f2565b611689565b005b3480156106ac57600080fd5b506106c760048036038101906106c29190613823565b6118f8565b005b3480156106d557600080fd5b506106f060048036038101906106eb919061376c565b611a84565b005b3480156106fe57600080fd5b50610707611ae6565b6040516107149190613ebe565b60405180910390f35b34801561072957600080fd5b50610744600480360381019061073f91906138f2565b611afd565b6040516107519190613ed9565b60405180910390f35b34801561076657600080fd5b5061076f611ba4565b60405161077c919061427b565b60405180910390f35b34801561079157600080fd5b5061079a611baa565b6040516107a7919061427b565b60405180910390f35b3480156107bc57600080fd5b506107d760048036038101906107d291906136b8565b611baf565b005b3480156107e557600080fd5b5061080060048036038101906107fb91906136e1565b611c6f565b60405161080d9190613ebe565b60405180910390f35b34801561082257600080fd5b5061082b611d03565b6040516108389190613ebe565b60405180910390f35b34801561084d57600080fd5b50610868600480360381019061086391906136b8565b611d16565b005b34801561087657600080fd5b50610891600480360381019061088c91906136b8565b611e0e565b005b600061089e82611fe2565b9050919050565b6060600080546108b490614536565b80601f01602080910402602001604051908101604052809291908181526020018280546108e090614536565b801561092d5780601f106109025761010080835404028352916020019161092d565b820191906000526020600020905b81548152906001019060200180831161091057829003601f168201915b5050505050905090565b60006109428261205c565b610981576040517f08c379a00000000000000000000000000000000000000000000000000000000081526004016109789061413b565b60405180910390fd5b6004600083815260200190815260200160002060009054906101000a900473ffffffffffffffffffffffffffffffffffffffff169050919050565b60006109c782610f7d565b90508073ffffffffffffffffffffffffffffffffffffffff168373ffffffffffffffffffffffffffffffffffffffff161415610a38576040517f08c379a0000000000000000000000000000000000000000000000000000000008152600401610a2f9061419b565b60405180910390fd5b8073ffffffffffffffffffffffffffffffffffffffff16610a576120c8565b73ffffffffffffffffffffffffffffffffffffffff161480610a865750610a8581610a806120c8565b611c6f565b5b610ac5576040517f08c379a0000000000000000000000000000000000000000000000000000000008152600401610abc9061407b565b60405180910390fd5b610acf83836120d0565b505050565b6000600880549050905090565b610af2610aec6120c8565b82612189565b610b31576040517f08c379a0000000000000000000000000000000000000000000000000000000008152600401610b28906141db565b60405180910390fd5b610b3c838383612267565b505050565b6000610b4c836111a2565b8210610b8d576040517f08c379a0000000000000000000000000000000000000000000000000000000008152600401610b8490613efb565b60405180910390fd5b600660008473ffffffffffffffffffffffffffffffffffffffff1673ffffffffffffffffffffffffffffffffffffffff168152602001908152602001600020600083815260200190815260200160002054905092915050565b610bee6120c8565b73ffffffffffffffffffffffffffffffffffffffff16610c0c6114d2565b73ffffffffffffffffffffffffffffffffffffffff161480610c825750610c316120c8565b73ffffffffffffffffffffffffffffffffffffffff16601160009054906101000a900473ffffffffffffffffffffffffffffffffffffffff1673ffffffffffffffffffffffffffffffffffffffff16145b610cc1576040517f08c379a0000000000000000000000000000000000000000000000000000000008152600401610cb890613fdb565b60405180910390fd5b600c5482610ccd610ad4565b610cd7919061436b565b1115610d18576040517f08c379a0000000000000000000000000000000000000000000000000000000008152600401610d0f9061423b565b60405180910390fd5b60005b82811015610d5f57610d42826001610d33600b6124ce565b610d3d919061436b565b6124dc565b610d4c600b6124fa565b8080610d5790614599565b915050610d1b565b505050565b610d7f83838360405180602001604052806000815250611a84565b505050565b610d95610d8f6120c8565b82612189565b610dd4576040517f08c379a0000000000000000000000000000000000000000000000000000000008152600401610dcb9061421b565b60405180910390fd5b610ddd81612510565b50565b6000610dea610ad4565b8210610e2b576040517f08c379a0000000000000000000000000000000000000000000000000000000008152600401610e22906141fb565b60405180910390fd5b60088281548110610e65577f4e487b7100000000000000000000000000000000000000000000000000000000600052603260045260246000fd5b90600052602060002001549050919050565b610e7f6120c8565b73ffffffffffffffffffffffffffffffffffffffff16610e9d6114d2565b73ffffffffffffffffffffffffffffffffffffffff161480610f135750610ec26120c8565b73ffffffffffffffffffffffffffffffffffffffff16601160009054906101000a900473ffffffffffffffffffffffffffffffffffffffff1673ffffffffffffffffffffffffffffffffffffffff16145b610f52576040517f08c379a0000000000000000000000000000000000000000000000000000000008152600401610f4990613fdb565b60405180910390fd5b80600e9080519060200190610f689291906134dc565b5050565b6000610f78600b6124ce565b905090565b6000806002600084815260200190815260200160002060009054906101000a900473ffffffffffffffffffffffffffffffffffffffff169050600073ffffffffffffffffffffffffffffffffffffffff168173ffffffffffffffffffffffffffffffffffffffff161415611026576040517f08c379a000000000000000000000000000000000000000000000000000000000815260040161101d906140bb565b60405180910390fd5b80915050919050565b600e805461103c90614536565b80601f016020809104026020016040519081016040528092919081815260200182805461106890614536565b80156110b55780601f1061108a576101008083540402835291602001916110b5565b820191906000526020600020905b81548152906001019060200180831161109857829003601f168201915b505050505081565b6110c56120c8565b73ffffffffffffffffffffffffffffffffffffffff166110e36114d2565b73ffffffffffffffffffffffffffffffffffffffff16148061115957506111086120c8565b73ffffffffffffffffffffffffffffffffffffffff16601160009054906101000a900473ffffffffffffffffffffffffffffffffffffffff1673ffffffffffffffffffffffffffffffffffffffff16145b611198576040517f08c379a000000000000000000000000000000000000000000000000000000000815260040161118f90613fdb565b60405180910390fd5b80600c8190555050565b60008073ffffffffffffffffffffffffffffffffffffffff168273ffffffffffffffffffffffffffffffffffffffff161415611213576040517f08c379a000000000000000000000000000000000000000000000000000000000815260040161120a9061409b565b60405180910390fd5b600360008373ffffffffffffffffffffffffffffffffffffffff1673ffffffffffffffffffffffffffffffffffffffff168152602001908152602001600020549050919050565b6112626120c8565b73ffffffffffffffffffffffffffffffffffffffff166112806114d2565b73ffffffffffffffffffffffffffffffffffffffff16146112d6576040517f08c379a00000000000000000000000000000000000000000000000000000000081526004016112cd9061415b565b60405180910390fd5b6112e0600061262d565b565b600c5481565b6112f06120c8565b73ffffffffffffffffffffffffffffffffffffffff1661130e6114d2565b73ffffffffffffffffffffffffffffffffffffffff16148061138457506113336120c8565b73ffffffffffffffffffffffffffffffffffffffff16601160009054906101000a900473ffffffffffffffffffffffffffffffffffffffff1673ffffffffffffffffffffffffffffffffffffffff16145b6113c3576040517f08c379a00000000000000000000000000000000000000000000000000000000081526004016113ba90613fdb565b60405180910390fd5b600f60009054906101000a900460ff1615600f60006101000a81548160ff021916908315150217905550565b60006113f96120c8565b73ffffffffffffffffffffffffffffffffffffffff166114176114d2565b73ffffffffffffffffffffffffffffffffffffffff16148061148d575061143c6120c8565b73ffffffffffffffffffffffffffffffffffffffff16601160009054906101000a900473ffffffffffffffffffffffffffffffffffffffff1673ffffffffffffffffffffffffffffffffffffffff16145b6114cc576040517f08c379a00000000000000000000000000000000000000000000000000000000081526004016114c390613fdb565b60405180910390fd5b47905090565b6000600a60009054906101000a900473ffffffffffffffffffffffffffffffffffffffff16905090565b6115046120c8565b73ffffffffffffffffffffffffffffffffffffffff166115226114d2565b73ffffffffffffffffffffffffffffffffffffffff16148061159857506115476120c8565b73ffffffffffffffffffffffffffffffffffffffff16601160009054906101000a900473ffffffffffffffffffffffffffffffffffffffff1673ffffffffffffffffffffffffffffffffffffffff16145b6115d7576040517f08c379a00000000000000000000000000000000000000000000000000000000081526004016115ce90613fdb565b60405180910390fd5b80600d8190555050565b6060600180546115f090614536565b80601f016020809104026020016040519081016040528092919081815260200182805461161c90614536565b80156116695780601f1061163e57610100808354040283529160200191611669565b820191906000526020600020905b81548152906001019060200180831161164c57829003601f168201915b5050505050905090565b61168561167e6120c8565b83836126f3565b5050565b600f60009054906101000a900460ff166116d8576040517f08c379a00000000000000000000000000000000000000000000000000000000081526004016116cf9061405b565b60405180910390fd5b3481600d546116e791906143f2565b1115611728576040517f08c379a000000000000000000000000000000000000000000000000000000000815260040161171f90613ffb565b60405180910390fd5b600281111561176c576040517f08c379a0000000000000000000000000000000000000000000000000000000008152600401611763906140db565b60405180910390fd5b6002601060003373ffffffffffffffffffffffffffffffffffffffff1673ffffffffffffffffffffffffffffffffffffffff1681526020019081526020016000205411156117ef576040517f08c379a00000000000000000000000000000000000000000000000000000000081526004016117e69061403b565b60405180910390fd5b600c54816117fb610ad4565b611805919061436b565b1115611846576040517f08c379a000000000000000000000000000000000000000000000000000000000815260040161183d9061411b565b60405180910390fd5b60005b818110156118f4576000600161185f600b6124ce565b611869919061436b565b9050600c5481116118e05761187e33826124dc565b611888600b6124fa565b6001601060003373ffffffffffffffffffffffffffffffffffffffff1673ffffffffffffffffffffffffffffffffffffffff16815260200190815260200160002060008282546118d8919061436b565b925050819055505b5080806118ec90614599565b915050611849565b5050565b6119006120c8565b73ffffffffffffffffffffffffffffffffffffffff1661191e6114d2565b73ffffffffffffffffffffffffffffffffffffffff16148061199457506119436120c8565b73ffffffffffffffffffffffffffffffffffffffff16601160009054906101000a900473ffffffffffffffffffffffffffffffffffffffff1673ffffffffffffffffffffffffffffffffffffffff16145b6119d3576040517f08c379a00000000000000000000000000000000000000000000000000000000081526004016119ca90613fdb565b60405180910390fd5b60008273ffffffffffffffffffffffffffffffffffffffff16826040516119f990613e42565b60006040518083038185875af1925050503d8060008114611a36576040519150601f19603f3d011682016040523d82523d6000602084013e611a3b565b606091505b5050905080611a7f576040517f08c379a0000000000000000000000000000000000000000000000000000000008152600401611a76906141bb565b60405180910390fd5b505050565b611a95611a8f6120c8565b83612189565b611ad4576040517f08c379a0000000000000000000000000000000000000000000000000000000008152600401611acb906141db565b60405180910390fd5b611ae084848484612860565b50505050565b6000600f60009054906101000a900460ff16905090565b6060611b088261205c565b611b47576040517f08c379a0000000000000000000000000000000000000000000000000000000008152600401611b3e9061417b565b60405180910390fd5b6000611b516128bc565b90506000815111611b715760405180602001604052806000815250611b9c565b80611b7b8461294e565b604051602001611b8c929190613e1e565b6040516020818303038152906040525b915050919050565b600d5481565b600281565b611bb76120c8565b73ffffffffffffffffffffffffffffffffffffffff16611bd56114d2565b73ffffffffffffffffffffffffffffffffffffffff1614611c2b576040517f08c379a0000000000000000000000000000000000000000000000000000000008152600401611c229061415b565b60405180910390fd5b80601160006101000a81548173ffffffffffffffffffffffffffffffffffffffff021916908373ffffffffffffffffffffffffffffffffffffffff16021790555050565b6000600560008473ffffffffffffffffffffffffffffffffffffffff1673ffffffffffffffffffffffffffffffffffffffff16815260200190815260200160002060008373ffffffffffffffffffffffffffffffffffffffff1673ffffffffffffffffffffffffffffffffffffffff16815260200190815260200160002060009054906101000a900460ff16905092915050565b600f60009054906101000a900460ff1681565b611d1e6120c8565b73ffffffffffffffffffffffffffffffffffffffff16611d3c6114d2565b73ffffffffffffffffffffffffffffffffffffffff1614611d92576040517f08c379a0000000000000000000000000000000000000000000000000000000008152600401611d899061415b565b60405180910390fd5b600073ffffffffffffffffffffffffffffffffffffffff168173ffffffffffffffffffffffffffffffffffffffff161415611e02576040517f08c379a0000000000000000000000000000000000000000000000000000000008152600401611df990613f3b565b60405180910390fd5b611e0b8161262d565b50565b611e166120c8565b73ffffffffffffffffffffffffffffffffffffffff16611e346114d2565b73ffffffffffffffffffffffffffffffffffffffff161480611eaa5750611e596120c8565b73ffffffffffffffffffffffffffffffffffffffff16601160009054906101000a900473ffffffffffffffffffffffffffffffffffffffff1673ffffffffffffffffffffffffffffffffffffffff16145b611ee9576040517f08c379a0000000000000000000000000000000000000000000000000000000008152600401611ee090613fdb565b60405180910390fd5b600047905060008111611f31576040517f08c379a0000000000000000000000000000000000000000000000000000000008152600401611f289061425b565b60405180910390fd5b60008273ffffffffffffffffffffffffffffffffffffffff1682604051611f5790613e42565b60006040518083038185875af1925050503d8060008114611f94576040519150601f19603f3d011682016040523d82523d6000602084013e611f99565b606091505b5050905080611fdd576040517f08c379a0000000000000000000000000000000000000000000000000000000008152600401611fd4906141bb565b60405180910390fd5b505050565b60007f780e9d63000000000000000000000000000000000000000000000000000000007bffffffffffffffffffffffffffffffffffffffffffffffffffffffff1916827bffffffffffffffffffffffffffffffffffffffffffffffffffffffff19161480612055575061205482612afb565b5b9050919050565b60008073ffffffffffffffffffffffffffffffffffffffff166002600084815260200190815260200160002060009054906101000a900473ffffffffffffffffffffffffffffffffffffffff1673ffffffffffffffffffffffffffffffffffffffff1614159050919050565b600033905090565b816004600083815260200190815260200160002060006101000a81548173ffffffffffffffffffffffffffffffffffffffff021916908373ffffffffffffffffffffffffffffffffffffffff160217905550808273ffffffffffffffffffffffffffffffffffffffff1661214383610f7d565b73ffffffffffffffffffffffffffffffffffffffff167f8c5be1e5ebec7d5bd14f71427d1e84f3dd0314c0f7b2291e5b200ac8c7c3b92560405160405180910390a45050565b60006121948261205c565b6121d3576040517f08c379a00000000000000000000000000000000000000000000000000000000081526004016121ca9061401b565b60405180910390fd5b60006121de83610f7d565b90508073ffffffffffffffffffffffffffffffffffffffff168473ffffffffffffffffffffffffffffffffffffffff16148061224d57508373ffffffffffffffffffffffffffffffffffffffff1661223584610937565b73ffffffffffffffffffffffffffffffffffffffff16145b8061225e575061225d8185611c6f565b5b91505092915050565b8273ffffffffffffffffffffffffffffffffffffffff1661228782610f7d565b73ffffffffffffffffffffffffffffffffffffffff16146122dd576040517f08c379a00000000000000000000000000000000000000000000000000000000081526004016122d490613f5b565b60405180910390fd5b600073ffffffffffffffffffffffffffffffffffffffff168273ffffffffffffffffffffffffffffffffffffffff16141561234d576040517f08c379a000000000000000000000000000000000000000000000000000000000815260040161234490613f9b565b60405180910390fd5b612358838383612bdd565b6123636000826120d0565b6001600360008573ffffffffffffffffffffffffffffffffffffffff1673ffffffffffffffffffffffffffffffffffffffff16815260200190815260200160002060008282546123b3919061444c565b925050819055506001600360008473ffffffffffffffffffffffffffffffffffffffff1673ffffffffffffffffffffffffffffffffffffffff168152602001908152602001600020600082825461240a919061436b565b92505081905550816002600083815260200190815260200160002060006101000a81548173ffffffffffffffffffffffffffffffffffffffff021916908373ffffffffffffffffffffffffffffffffffffffff160217905550808273ffffffffffffffffffffffffffffffffffffffff168473ffffffffffffffffffffffffffffffffffffffff167fddf252ad1be2c89b69c2b068fc378daa952ba7f163c4a11628f55a4df523b3ef60405160405180910390a46124c9838383612bed565b505050565b600081600001549050919050565b6124f6828260405180602001604052806000815250612bf2565b5050565b6001816000016000828254019250508190555050565b600061251b82610f7d565b905061252981600084612bdd565b6125346000836120d0565b6001600360008373ffffffffffffffffffffffffffffffffffffffff1673ffffffffffffffffffffffffffffffffffffffff1681526020019081526020016000206000828254612584919061444c565b925050819055506002600083815260200190815260200160002060006101000a81549073ffffffffffffffffffffffffffffffffffffffff021916905581600073ffffffffffffffffffffffffffffffffffffffff168273ffffffffffffffffffffffffffffffffffffffff167fddf252ad1be2c89b69c2b068fc378daa952ba7f163c4a11628f55a4df523b3ef60405160405180910390a461262981600084612bed565b5050565b6000600a60009054906101000a900473ffffffffffffffffffffffffffffffffffffffff16905081600a60006101000a81548173ffffffffffffffffffffffffffffffffffffffff021916908373ffffffffffffffffffffffffffffffffffffffff1602179055508173ffffffffffffffffffffffffffffffffffffffff168173ffffffffffffffffffffffffffffffffffffffff167f8be0079c531659141344cd1fd0a4f28419497f9722a3daafe3b4186f6b6457e060405160405180910390a35050565b8173ffffffffffffffffffffffffffffffffffffffff168373ffffffffffffffffffffffffffffffffffffffff161415612762576040517f08c379a000000000000000000000000000000000000000000000000000000000815260040161275990613fbb565b60405180910390fd5b80600560008573ffffffffffffffffffffffffffffffffffffffff1673ffffffffffffffffffffffffffffffffffffffff16815260200190815260200160002060008473ffffffffffffffffffffffffffffffffffffffff1673ffffffffffffffffffffffffffffffffffffffff16815260200190815260200160002060006101000a81548160ff0219169083151502179055508173ffffffffffffffffffffffffffffffffffffffff168373ffffffffffffffffffffffffffffffffffffffff167f17307eab39ab6107e8899845ad3d59bd9653f200f220920489ca2b5937696c31836040516128539190613ebe565b60405180910390a3505050565b61286b848484612267565b61287784848484612c4d565b6128b6576040517f08c379a00000000000000000000000000000000000000000000000000000000081526004016128ad90613f1b565b60405180910390fd5b50505050565b6060600e80546128cb90614536565b80601f01602080910402602001604051908101604052809291908181526020018280546128f790614536565b80156129445780601f1061291957610100808354040283529160200191612944565b820191906000526020600020905b81548152906001019060200180831161292757829003601f168201915b5050505050905090565b60606000821415612996576040518060400160405280600181526020017f30000000000000000000000000000000000000000000000000000000000000008152509050612af6565b600082905060005b600082146129c85780806129b190614599565b915050600a826129c191906143c1565b915061299e565b60008167ffffffffffffffff811115612a0a577f4e487b7100000000000000000000000000000000000000000000000000000000600052604160045260246000fd5b6040519080825280601f01601f191660200182016040528015612a3c5781602001600182028036833780820191505090505b5090505b60008514612aef57600182612a55919061444c565b9150600a85612a6491906145e2565b6030612a70919061436b565b60f81b818381518110612aac577f4e487b7100000000000000000000000000000000000000000000000000000000600052603260045260246000fd5b60200101907effffffffffffffffffffffffffffffffffffffffffffffffffffffffffffff1916908160001a905350600a85612ae891906143c1565b9450612a40565b8093505050505b919050565b60007f80ac58cd000000000000000000000000000000000000000000000000000000007bffffffffffffffffffffffffffffffffffffffffffffffffffffffff1916827bffffffffffffffffffffffffffffffffffffffffffffffffffffffff19161480612bc657507f5b5e139f000000000000000000000000000000000000000000000000000000007bffffffffffffffffffffffffffffffffffffffffffffffffffffffff1916827bffffffffffffffffffffffffffffffffffffffffffffffffffffffff1916145b80612bd65750612bd582612de4565b5b9050919050565b612be8838383612e4e565b505050565b505050565b612bfc8383612f62565b612c096000848484612c4d565b612c48576040517f08c379a0000000000000000000000000000000000000000000000000000000008152600401612c3f90613f1b565b60405180910390fd5b505050565b6000612c6e8473ffffffffffffffffffffffffffffffffffffffff1661313c565b15612dd7578373ffffffffffffffffffffffffffffffffffffffff1663150b7a02612c976120c8565b8786866040518563ffffffff1660e01b8152600401612cb99493929190613e72565b602060405180830381600087803b158015612cd357600080fd5b505af1925050508015612d0457506040513d601f19601f82011682018060405250810190612d019190613888565b60015b612d87573d8060008114612d34576040519150601f19603f3d011682016040523d82523d6000602084013e612d39565b606091505b50600081511415612d7f576040517f08c379a0000000000000000000000000000000000000000000000000000000008152600401612d7690613f1b565b60405180910390fd5b805181602001fd5b63150b7a0260e01b7bffffffffffffffffffffffffffffffffffffffffffffffffffffffff1916817bffffffffffffffffffffffffffffffffffffffffffffffffffffffff191614915050612ddc565b600190505b949350505050565b60007f01ffc9a7000000000000000000000000000000000000000000000000000000007bffffffffffffffffffffffffffffffffffffffffffffffffffffffff1916827bffffffffffffffffffffffffffffffffffffffffffffffffffffffff1916149050919050565b612e5983838361315f565b600073ffffffffffffffffffffffffffffffffffffffff168373ffffffffffffffffffffffffffffffffffffffff161415612e9c57612e9781613164565b612edb565b8173ffffffffffffffffffffffffffffffffffffffff168373ffffffffffffffffffffffffffffffffffffffff1614612eda57612ed983826131ad565b5b5b600073ffffffffffffffffffffffffffffffffffffffff168273ffffffffffffffffffffffffffffffffffffffff161415612f1e57612f198161331a565b612f5d565b8273ffffffffffffffffffffffffffffffffffffffff168273ffffffffffffffffffffffffffffffffffffffff1614612f5c57612f5b828261345d565b5b5b505050565b600073ffffffffffffffffffffffffffffffffffffffff168273ffffffffffffffffffffffffffffffffffffffff161415612fd2576040517f08c379a0000000000000000000000000000000000000000000000000000000008152600401612fc9906140fb565b60405180910390fd5b612fdb8161205c565b1561301b576040517f08c379a000000000000000000000000000000000000000000000000000000000815260040161301290613f7b565b60405180910390fd5b61302760008383612bdd565b6001600360008473ffffffffffffffffffffffffffffffffffffffff1673ffffffffffffffffffffffffffffffffffffffff1681526020019081526020016000206000828254613077919061436b565b92505081905550816002600083815260200190815260200160002060006101000a81548173ffffffffffffffffffffffffffffffffffffffff021916908373ffffffffffffffffffffffffffffffffffffffff160217905550808273ffffffffffffffffffffffffffffffffffffffff16600073ffffffffffffffffffffffffffffffffffffffff167fddf252ad1be2c89b69c2b068fc378daa952ba7f163c4a11628f55a4df523b3ef60405160405180910390a461313860008383612bed565b5050565b6000808273ffffffffffffffffffffffffffffffffffffffff163b119050919050565b505050565b6008805490506009600083815260200190815260200160002081905550600881908060018154018082558091505060019003906000526020600020016000909190919091505550565b600060016131ba846111a2565b6131c4919061444c565b90506000600760008481526020019081526020016000205490508181146132a9576000600660008673ffffffffffffffffffffffffffffffffffffffff1673ffffffffffffffffffffffffffffffffffffffff168152602001908152602001600020600084815260200190815260200160002054905080600660008773ffffffffffffffffffffffffffffffffffffffff1673ffffffffffffffffffffffffffffffffffffffff168152602001908152602001600020600084815260200190815260200160002081905550816007600083815260200190815260200160002081905550505b6007600084815260200190815260200160002060009055600660008573ffffffffffffffffffffffffffffffffffffffff1673ffffffffffffffffffffffffffffffffffffffff16815260200190815260200160002060008381526020019081526020016000206000905550505050565b6000600160088054905061332e919061444c565b9050600060096000848152602001908152602001600020549050600060088381548110613384577f4e487b7100000000000000000000000000000000000000000000000000000000600052603260045260246000fd5b9060005260206000200154905080600883815481106133cc577f4e487b7100000000000000000000000000000000000000000000000000000000600052603260045260246000fd5b906000526020600020018190555081600960008381526020019081526020016000208190555060096000858152602001908152602001600020600090556008805480613441577f4e487b7100000000000000000000000000000000000000000000000000000000600052603160045260246000fd5b6001900381819060005260206000200160009055905550505050565b6000613468836111a2565b905081600660008573ffffffffffffffffffffffffffffffffffffffff1673ffffffffffffffffffffffffffffffffffffffff168152602001908152602001600020600083815260200190815260200160002081905550806007600084815260200190815260200160002081905550505050565b8280546134e890614536565b90600052602060002090601f01602090048101928261350a5760008555613551565b82601f1061352357805160ff1916838001178555613551565b82800160010185558215613551579182015b82811115613550578251825591602001919060010190613535565b5b50905061355e9190613562565b5090565b5b8082111561357b576000816000905550600101613563565b5090565b600061359261358d846142bb565b614296565b9050828152602081018484840111156135aa57600080fd5b6135b58482856144f4565b509392505050565b60006135d06135cb846142ec565b614296565b9050828152602081018484840111156135e857600080fd5b6135f38482856144f4565b509392505050565b60008135905061360a81614e31565b92915050565b60008135905061361f81614e48565b92915050565b60008135905061363481614e5f565b92915050565b60008151905061364981614e5f565b92915050565b600082601f83011261366057600080fd5b813561367084826020860161357f565b91505092915050565b600082601f83011261368a57600080fd5b813561369a8482602086016135bd565b91505092915050565b6000813590506136b281614e76565b92915050565b6000602082840312156136ca57600080fd5b60006136d8848285016135fb565b91505092915050565b600080604083850312156136f457600080fd5b6000613702858286016135fb565b9250506020613713858286016135fb565b9150509250929050565b60008060006060848603121561373257600080fd5b6000613740868287016135fb565b9350506020613751868287016135fb565b9250506040613762868287016136a3565b9150509250925092565b6000806000806080858703121561378257600080fd5b6000613790878288016135fb565b94505060206137a1878288016135fb565b93505060406137b2878288016136a3565b925050606085013567ffffffffffffffff8111156137cf57600080fd5b6137db8782880161364f565b91505092959194509250565b600080604083850312156137fa57600080fd5b6000613808858286016135fb565b925050602061381985828601613610565b9150509250929050565b6000806040838503121561383657600080fd5b6000613844858286016135fb565b9250506020613855858286016136a3565b9150509250929050565b60006020828403121561387157600080fd5b600061387f84828501613625565b91505092915050565b60006020828403121561389a57600080fd5b60006138a88482850161363a565b91505092915050565b6000602082840312156138c357600080fd5b600082013567ffffffffffffffff8111156138dd57600080fd5b6138e984828501613679565b91505092915050565b60006020828403121561390457600080fd5b6000613912848285016136a3565b91505092915050565b6000806040838503121561392e57600080fd5b600061393c858286016136a3565b925050602061394d858286016135fb565b9150509250929050565b61396081614480565b82525050565b61396f81614492565b82525050565b60006139808261431d565b61398a8185614333565b935061399a818560208601614503565b6139a3816146cf565b840191505092915050565b60006139b982614328565b6139c3818561434f565b93506139d3818560208601614503565b6139dc816146cf565b840191505092915050565b60006139f282614328565b6139fc8185614360565b9350613a0c818560208601614503565b80840191505092915050565b6000613a25602b8361434f565b9150613a30826146e0565b604082019050919050565b6000613a4860328361434f565b9150613a538261472f565b604082019050919050565b6000613a6b60268361434f565b9150613a768261477e565b604082019050919050565b6000613a8e60258361434f565b9150613a99826147cd565b604082019050919050565b6000613ab1601c8361434f565b9150613abc8261481c565b602082019050919050565b6000613ad460248361434f565b9150613adf82614845565b604082019050919050565b6000613af760198361434f565b9150613b0282614894565b602082019050919050565b6000613b1a60228361434f565b9150613b25826148bd565b604082019050919050565b6000613b3d601f8361434f565b9150613b488261490c565b602082019050919050565b6000613b60602c8361434f565b9150613b6b82614935565b604082019050919050565b6000613b83602a8361434f565b9150613b8e82614984565b604082019050919050565b6000613ba660278361434f565b9150613bb1826149d3565b604082019050919050565b6000613bc960388361434f565b9150613bd482614a22565b604082019050919050565b6000613bec602a8361434f565b9150613bf782614a71565b604082019050919050565b6000613c0f60298361434f565b9150613c1a82614ac0565b604082019050919050565b6000613c32602b8361434f565b9150613c3d82614b0f565b604082019050919050565b6000613c5560208361434f565b9150613c6082614b5e565b602082019050919050565b6000613c7860168361434f565b9150613c8382614b87565b602082019050919050565b6000613c9b602c8361434f565b9150613ca682614bb0565b604082019050919050565b6000613cbe60208361434f565b9150613cc982614bff565b602082019050919050565b6000613ce1602f8361434f565b9150613cec82614c28565b604082019050919050565b6000613d0460218361434f565b9150613d0f82614c77565b604082019050919050565b6000613d27600083614344565b9150613d3282614cc6565b600082019050919050565b6000613d4a60108361434f565b9150613d5582614cc9565b602082019050919050565b6000613d6d60318361434f565b9150613d7882614cf2565b604082019050919050565b6000613d90602c8361434f565b9150613d9b82614d41565b604082019050919050565b6000613db360308361434f565b9150613dbe82614d90565b604082019050919050565b6000613dd660148361434f565b9150613de182614ddf565b602082019050919050565b6000613df9600f8361434f565b9150613e0482614e08565b602082019050919050565b613e18816144ea565b82525050565b6000613e2a82856139e7565b9150613e3682846139e7565b91508190509392505050565b6000613e4d82613d1a565b9150819050919050565b6000602082019050613e6c6000830184613957565b92915050565b6000608082019050613e876000830187613957565b613e946020830186613957565b613ea16040830185613e0f565b8181036060830152613eb38184613975565b905095945050505050565b6000602082019050613ed36000830184613966565b92915050565b60006020820190508181036000830152613ef381846139ae565b905092915050565b60006020820190508181036000830152613f1481613a18565b9050919050565b60006020820190508181036000830152613f3481613a3b565b9050919050565b60006020820190508181036000830152613f5481613a5e565b9050919050565b60006020820190508181036000830152613f7481613a81565b9050919050565b60006020820190508181036000830152613f9481613aa4565b9050919050565b60006020820190508181036000830152613fb481613ac7565b9050919050565b60006020820190508181036000830152613fd481613aea565b9050919050565b60006020820190508181036000830152613ff481613b0d565b9050919050565b6000602082019050818103600083015261401481613b30565b9050919050565b6000602082019050818103600083015261403481613b53565b9050919050565b6000602082019050818103600083015261405481613b76565b9050919050565b6000602082019050818103600083015261407481613b99565b9050919050565b6000602082019050818103600083015261409481613bbc565b9050919050565b600060208201905081810360008301526140b481613bdf565b9050919050565b600060208201905081810360008301526140d481613c02565b9050919050565b600060208201905081810360008301526140f481613c25565b9050919050565b6000602082019050818103600083015261411481613c48565b9050919050565b6000602082019050818103600083015261413481613c6b565b9050919050565b6000602082019050818103600083015261415481613c8e565b9050919050565b6000602082019050818103600083015261417481613cb1565b9050919050565b6000602082019050818103600083015261419481613cd4565b9050919050565b600060208201905081810360008301526141b481613cf7565b9050919050565b600060208201905081810360008301526141d481613d3d565b9050919050565b600060208201905081810360008301526141f481613d60565b9050919050565b6000602082019050818103600083015261421481613d83565b9050919050565b6000602082019050818103600083015261423481613da6565b9050919050565b6000602082019050818103600083015261425481613dc9565b9050919050565b6000602082019050818103600083015261427481613dec565b9050919050565b60006020820190506142906000830184613e0f565b92915050565b60006142a06142b1565b90506142ac8282614568565b919050565b6000604051905090565b600067ffffffffffffffff8211156142d6576142d56146a0565b5b6142df826146cf565b9050602081019050919050565b600067ffffffffffffffff821115614307576143066146a0565b5b614310826146cf565b9050602081019050919050565b600081519050919050565b600081519050919050565b600082825260208201905092915050565b600081905092915050565b600082825260208201905092915050565b600081905092915050565b6000614376826144ea565b9150614381836144ea565b9250827fffffffffffffffffffffffffffffffffffffffffffffffffffffffffffffffff038211156143b6576143b5614613565b5b828201905092915050565b60006143cc826144ea565b91506143d7836144ea565b9250826143e7576143e6614642565b5b828204905092915050565b60006143fd826144ea565b9150614408836144ea565b9250817fffffffffffffffffffffffffffffffffffffffffffffffffffffffffffffffff048311821515161561444157614440614613565b5b828202905092915050565b6000614457826144ea565b9150614462836144ea565b92508282101561447557614474614613565b5b828203905092915050565b600061448b826144ca565b9050919050565b60008115159050919050565b60007fffffffff0000000000000000000000000000000000000000000000000000000082169050919050565b600073ffffffffffffffffffffffffffffffffffffffff82169050919050565b6000819050919050565b82818337600083830152505050565b60005b83811015614521578082015181840152602081019050614506565b83811115614530576000848401525b50505050565b6000600282049050600182168061454e57607f821691505b6020821081141561456257614561614671565b5b50919050565b614571826146cf565b810181811067ffffffffffffffff821117156145905761458f6146a0565b5b80604052505050565b60006145a4826144ea565b91507fffffffffffffffffffffffffffffffffffffffffffffffffffffffffffffffff8214156145d7576145d6614613565b5b600182019050919050565b60006145ed826144ea565b91506145f8836144ea565b92508261460857614607614642565b5b828206905092915050565b7f4e487b7100000000000000000000000000000000000000000000000000000000600052601160045260246000fd5b7f4e487b7100000000000000000000000000000000000000000000000000000000600052601260045260246000fd5b7f4e487b7100000000000000000000000000000000000000000000000000000000600052602260045260246000fd5b7f4e487b7100000000000000000000000000000000000000000000000000000000600052604160045260246000fd5b6000601f19601f8301169050919050565b7f455243373231456e756d657261626c653a206f776e657220696e646578206f7560008201527f74206f6620626f756e6473000000000000000000000000000000000000000000602082015250565b7f4552433732313a207472616e7366657220746f206e6f6e20455243373231526560008201527f63656976657220696d706c656d656e7465720000000000000000000000000000602082015250565b7f4f776e61626c653a206e6577206f776e657220697320746865207a65726f206160008201527f6464726573730000000000000000000000000000000000000000000000000000602082015250565b7f4552433732313a207472616e736665722066726f6d20696e636f72726563742060008201527f6f776e6572000000000000000000000000000000000000000000000000000000602082015250565b7f4552433732313a20746f6b656e20616c7265616479206d696e74656400000000600082015250565b7f4552433732313a207472616e7366657220746f20746865207a65726f2061646460008201527f7265737300000000000000000000000000000000000000000000000000000000602082015250565b7f4552433732313a20617070726f766520746f2063616c6c657200000000000000600082015250565b7f43616c6c6572206973206e6f7420746865206f776e6572206f72206d616e616760008201527f6572000000000000000000000000000000000000000000000000000000000000602082015250565b7f45746865722076616c75652073656e74206973206e6f7420636f727265637400600082015250565b7f4552433732313a206f70657261746f7220717565727920666f72206e6f6e657860008201527f697374656e7420746f6b656e0000000000000000000000000000000000000000602082015250565b7f507572636861736520776f756c64206578656564206d6178207061737365732060008201527f7065722077616c6c657400000000000000000000000000000000000000000000602082015250565b7f53616c65206d7573742062652061637469766520746f206d696e74204163636560008201527f7373205061737300000000000000000000000000000000000000000000000000602082015250565b7f4552433732313a20617070726f76652063616c6c6572206973206e6f74206f7760008201527f6e6572206e6f7220617070726f76656420666f7220616c6c0000000000000000602082015250565b7f4552433732313a2062616c616e636520717565727920666f7220746865207a6560008201527f726f206164647265737300000000000000000000000000000000000000000000602082015250565b7f4552433732313a206f776e657220717565727920666f72206e6f6e657869737460008201527f656e7420746f6b656e0000000000000000000000000000000000000000000000602082015250565b7f596f752063616e206f6e6c79206d696e7420312041636365737320706173736560008201527f7320617420612074696d65000000000000000000000000000000000000000000602082015250565b7f4552433732313a206d696e7420746f20746865207a65726f2061646472657373600082015250565b7f4163636573732050617373657320536f6c64204f757400000000000000000000600082015250565b7f4552433732313a20617070726f76656420717565727920666f72206e6f6e657860008201527f697374656e7420746f6b656e0000000000000000000000000000000000000000602082015250565b7f4f776e61626c653a2063616c6c6572206973206e6f7420746865206f776e6572600082015250565b7f4552433732314d657461646174613a2055524920717565727920666f72206e6f60008201527f6e6578697374656e7420746f6b656e0000000000000000000000000000000000602082015250565b7f4552433732313a20617070726f76616c20746f2063757272656e74206f776e6560008201527f7200000000000000000000000000000000000000000000000000000000000000602082015250565b50565b7f5472616e73666572206661696c65642e00000000000000000000000000000000600082015250565b7f4552433732313a207472616e736665722063616c6c6572206973206e6f74206f60008201527f776e6572206e6f7220617070726f766564000000000000000000000000000000602082015250565b7f455243373231456e756d657261626c653a20676c6f62616c20696e646578206f60008201527f7574206f6620626f756e64730000000000000000000000000000000000000000602082015250565b7f4552433732314275726e61626c653a2063616c6c6572206973206e6f74206f7760008201527f6e6572206e6f7220617070726f76656400000000000000000000000000000000602082015250565b7f416363657373205061737320536f6c64204f7574000000000000000000000000600082015250565b7f42616c616e6365206973207a65726f0000000000000000000000000000000000600082015250565b614e3a81614480565b8114614e4557600080fd5b50565b614e5181614492565b8114614e5c57600080fd5b50565b614e688161449e565b8114614e7357600080fd5b50565b614e7f816144ea565b8114614e8a57600080fd5b5056fea26469706673582212201d2cc53cf895ec3ba8527385e86abbdc8f7e9f272f9421495269d01e39ec867764736f6c63430008040033",
  "linkReferences": {},
  "deployedLinkReferences": {}
}