{
  "contractName": "BlackBoxAccessPass",
  "abi": [
    {
      "inputs": [],
      "stateMutability": "nonpayable",
      "type": "constructor"
    },
    {
      "anonymous": false,
      "inputs": [
        {
          "indexed": true,
          "internalType": "address",
          "name": "owner",
          "type": "address"
        },
        {
          "indexed": true,
          "internalType": "address",
          "name": "approved",
          "type": "address"
        },
        {
          "indexed": true,
          "internalType": "uint256",
          "name": "tokenId",
          "type": "uint256"
        }
      ],
      "name": "Approval",
      "type": "event"
    },
    {
      "anonymous": false,
      "inputs": [
        {
          "indexed": true,
          "internalType": "address",
          "name": "owner",
          "type": "address"
        },
        {
          "indexed": true,
          "internalType": "address",
          "name": "operator",
          "type": "address"
        },
        {
          "indexed": false,
          "internalType": "bool",
          "name": "approved",
          "type": "bool"
        }
      ],
      "name": "ApprovalForAll",
      "type": "event"
    },
    {
      "anonymous": false,
      "inputs": [
        {
          "indexed": true,
          "internalType": "address",
          "name": "previousOwner",
          "type": "address"
        },
        {
          "indexed": true,
          "internalType": "address",
          "name": "newOwner",
          "type": "address"
        }
      ],
      "name": "OwnershipTransferred",
      "type": "event"
    },
    {
      "anonymous": false,
      "inputs": [
        {
          "indexed": true,
          "internalType": "address",
          "name": "from",
          "type": "address"
        },
        {
          "indexed": true,
          "internalType": "address",
          "name": "to",
          "type": "address"
        },
        {
          "indexed": true,
          "internalType": "uint256",
          "name": "tokenId",
          "type": "uint256"
        }
      ],
      "name": "Transfer",
      "type": "event"
    },
    {
      "inputs": [],
      "name": "MAX_ACCESS_PASS",
      "outputs": [
        {
          "internalType": "uint256",
          "name": "",
          "type": "uint256"
        }
      ],
      "stateMutability": "view",
      "type": "function"
    },
    {
      "inputs": [
        {
          "internalType": "address",
          "name": "_address",
          "type": "address"
        },
        {
          "internalType": "uint256",
          "name": "_amount",
          "type": "uint256"
        }
      ],
      "name": "_widthdraw",
      "outputs": [],
      "stateMutability": "nonpayable",
      "type": "function"
    },
    {
      "inputs": [
        {
          "internalType": "address",
          "name": "to",
          "type": "address"
        },
        {
          "internalType": "uint256",
          "name": "tokenId",
          "type": "uint256"
        }
      ],
      "name": "approve",
      "outputs": [],
      "stateMutability": "nonpayable",
      "type": "function"
    },
    {
      "inputs": [
        {
          "internalType": "address",
          "name": "owner",
          "type": "address"
        }
      ],
      "name": "balanceOf",
      "outputs": [
        {
          "internalType": "uint256",
          "name": "",
          "type": "uint256"
        }
      ],
      "stateMutability": "view",
      "type": "function"
    },
    {
      "inputs": [],
      "name": "baseURI",
      "outputs": [
        {
          "internalType": "string",
          "name": "",
          "type": "string"
        }
      ],
      "stateMutability": "view",
      "type": "function"
    },
    {
      "inputs": [
        {
          "internalType": "uint256",
          "name": "tokenId",
          "type": "uint256"
        }
      ],
      "name": "burn",
      "outputs": [],
      "stateMutability": "nonpayable",
      "type": "function"
    },
    {
      "inputs": [],
      "name": "contractBalance",
      "outputs": [
        {
          "internalType": "uint256",
          "name": "",
          "type": "uint256"
        }
      ],
      "stateMutability": "view",
      "type": "function"
    },
    {
      "inputs": [],
      "name": "flipSale",
      "outputs": [],
      "stateMutability": "nonpayable",
      "type": "function"
    },
    {
      "inputs": [
        {
          "internalType": "uint256",
          "name": "tokenId",
          "type": "uint256"
        }
      ],
      "name": "getApproved",
      "outputs": [
        {
          "internalType": "address",
          "name": "",
          "type": "address"
        }
      ],
      "stateMutability": "view",
      "type": "function"
    },
    {
      "inputs": [
        {
          "internalType": "address",
          "name": "owner",
          "type": "address"
        },
        {
          "internalType": "address",
          "name": "operator",
          "type": "address"
        }
      ],
      "name": "isApprovedForAll",
      "outputs": [
        {
          "internalType": "bool",
          "name": "",
          "type": "bool"
        }
      ],
      "stateMutability": "view",
      "type": "function"
    },
    {
      "inputs": [],
      "name": "maxPassTxn",
      "outputs": [
        {
          "internalType": "uint256",
          "name": "",
          "type": "uint256"
        }
      ],
      "stateMutability": "view",
      "type": "function"
    },
    {
      "inputs": [
        {
          "internalType": "uint256",
          "name": "numberOfTokens",
          "type": "uint256"
        }
      ],
      "name": "mintAccessPass",
      "outputs": [],
      "stateMutability": "payable",
      "type": "function"
    },
    {
      "inputs": [],
      "name": "name",
      "outputs": [
        {
          "internalType": "string",
          "name": "",
          "type": "string"
        }
      ],
      "stateMutability": "view",
      "type": "function"
    },
    {
      "inputs": [],
      "name": "owner",
      "outputs": [
        {
          "internalType": "address",
          "name": "",
          "type": "address"
        }
      ],
      "stateMutability": "view",
      "type": "function"
    },
    {
      "inputs": [
        {
          "internalType": "uint256",
          "name": "tokenId",
          "type": "uint256"
        }
      ],
      "name": "ownerOf",
      "outputs": [
        {
          "internalType": "address",
          "name": "",
          "type": "address"
        }
      ],
      "stateMutability": "view",
      "type": "function"
    },
    {
      "inputs": [],
      "name": "passPrice",
      "outputs": [
        {
          "internalType": "uint256",
          "name": "",
          "type": "uint256"
        }
      ],
      "stateMutability": "view",
      "type": "function"
    },
    {
      "inputs": [],
      "name": "renounceOwnership",
      "outputs": [],
      "stateMutability": "nonpayable",
      "type": "function"
    },
    {
      "inputs": [
        {
          "internalType": "uint256",
          "name": "reserveAmount",
          "type": "uint256"
        },
        {
          "internalType": "address",
          "name": "mintAddress",
          "type": "address"
        }
      ],
      "name": "reserveMintPass",
      "outputs": [],
      "stateMutability": "nonpayable",
      "type": "function"
    },
    {
      "inputs": [
        {
          "internalType": "address",
          "name": "from",
          "type": "address"
        },
        {
          "internalType": "address",
          "name": "to",
          "type": "address"
        },
        {
          "internalType": "uint256",
          "name": "tokenId",
          "type": "uint256"
        }
      ],
      "name": "safeTransferFrom",
      "outputs": [],
      "stateMutability": "nonpayable",
      "type": "function"
    },
    {
      "inputs": [
        {
          "internalType": "address",
          "name": "from",
          "type": "address"
        },
        {
          "internalType": "address",
          "name": "to",
          "type": "address"
        },
        {
          "internalType": "uint256",
          "name": "tokenId",
          "type": "uint256"
        },
        {
          "internalType": "bytes",
          "name": "_data",
          "type": "bytes"
        }
      ],
      "name": "safeTransferFrom",
      "outputs": [],
      "stateMutability": "nonpayable",
      "type": "function"
    },
    {
      "inputs": [],
      "name": "saleIsActive",
      "outputs": [
        {
          "internalType": "bool",
          "name": "",
          "type": "bool"
        }
      ],
      "stateMutability": "view",
      "type": "function"
    },
    {
      "inputs": [
        {
          "internalType": "address",
          "name": "operator",
          "type": "address"
        },
        {
          "internalType": "bool",
          "name": "approved",
          "type": "bool"
        }
      ],
      "name": "setApprovalForAll",
      "outputs": [],
      "stateMutability": "nonpayable",
      "type": "function"
    },
    {
      "inputs": [
        {
          "internalType": "string",
          "name": "newBaseURI",
          "type": "string"
        }
      ],
      "name": "setBaseURI",
      "outputs": [],
      "stateMutability": "nonpayable",
      "type": "function"
    },
    {
      "inputs": [
        {
          "internalType": "address",
          "name": "manager",
          "type": "address"
        }
      ],
      "name": "setManager",
      "outputs": [],
      "stateMutability": "nonpayable",
      "type": "function"
    },
    {
      "inputs": [
        {
          "internalType": "uint256",
          "name": "_maxSupply",
          "type": "uint256"
        }
      ],
      "name": "setMaxSupply",
      "outputs": [],
      "stateMutability": "nonpayable",
      "type": "function"
    },
    {
      "inputs": [
        {
          "internalType": "uint256",
          "name": "_price",
          "type": "uint256"
        }
      ],
      "name": "setPrice",
      "outputs": [],
      "stateMutability": "nonpayable",
      "type": "function"
    },
    {
      "inputs": [],
      "name": "stateSale",
      "outputs": [
        {
          "internalType": "bool",
          "name": "",
          "type": "bool"
        }
      ],
      "stateMutability": "view",
      "type": "function"
    },
    {
      "inputs": [
        {
          "internalType": "bytes4",
          "name": "interfaceId",
          "type": "bytes4"
        }
      ],
      "name": "supportsInterface",
      "outputs": [
        {
          "internalType": "bool",
          "name": "",
          "type": "bool"
        }
      ],
      "stateMutability": "view",
      "type": "function"
    },
    {
      "inputs": [],
      "name": "symbol",
      "outputs": [
        {
          "internalType": "string",
          "name": "",
          "type": "string"
        }
      ],
      "stateMutability": "view",
      "type": "function"
    },
    {
      "inputs": [
        {
          "internalType": "uint256",
          "name": "index",
          "type": "uint256"
        }
      ],
      "name": "tokenByIndex",
      "outputs": [
        {
          "internalType": "uint256",
          "name": "",
          "type": "uint256"
        }
      ],
      "stateMutability": "view",
      "type": "function"
    },
    {
      "inputs": [
        {
          "internalType": "address",
          "name": "owner",
          "type": "address"
        },
        {
          "internalType": "uint256",
          "name": "index",
          "type": "uint256"
        }
      ],
      "name": "tokenOfOwnerByIndex",
      "outputs": [
        {
          "internalType": "uint256",
          "name": "",
          "type": "uint256"
        }
      ],
      "stateMutability": "view",
      "type": "function"
    },
    {
      "inputs": [
        {
          "internalType": "uint256",
          "name": "tokenId",
          "type": "uint256"
        }
      ],
      "name": "tokenURI",
      "outputs": [
        {
          "internalType": "string",
          "name": "",
          "type": "string"
        }
      ],
      "stateMutability": "view",
      "type": "function"
    },
    {
      "inputs": [],
      "name": "totalSupply",
      "outputs": [
        {
          "internalType": "uint256",
          "name": "",
          "type": "uint256"
        }
      ],
      "stateMutability": "view",
      "type": "function"
    },
    {
      "inputs": [],
      "name": "totalToken",
      "outputs": [
        {
          "internalType": "uint256",
          "name": "",
          "type": "uint256"
        }
      ],
      "stateMutability": "view",
      "type": "function"
    },
    {
      "inputs": [
        {
          "internalType": "address",
          "name": "from",
          "type": "address"
        },
        {
          "internalType": "address",
          "name": "to",
          "type": "address"
        },
        {
          "internalType": "uint256",
          "name": "tokenId",
          "type": "uint256"
        }
      ],
      "name": "transferFrom",
      "outputs": [],
      "stateMutability": "nonpayable",
      "type": "function"
    },
    {
      "inputs": [
        {
          "internalType": "address",
          "name": "newOwner",
          "type": "address"
        }
      ],
      "name": "transferOwnership",
      "outputs": [],
      "stateMutability": "nonpayable",
      "type": "function"
    },
    {
      "inputs": [
        {
          "internalType": "address",
          "name": "_address",
          "type": "address"
        }
      ],
      "name": "withdrawAll",
      "outputs": [],
      "stateMutability": "nonpayable",
      "type": "function"
    }
  ],
  "bytecode": "0x6080604052610dac600c55671b0fcaab20030000600d556000600f60006101000a81548160ff0219169083151502179055503480156200003e57600080fd5b506040518060400160405280601481526020017f424c41434b20424f5820434f4c4c4543544956450000000000000000000000008152506040518060400160405280600b81526020017f41434345535320504153530000000000000000000000000000000000000000008152508160009080519060200190620000c3929190620001d3565b508060019080519060200190620000dc929190620001d3565b505050620000ff620000f36200010560201b60201c565b6200010d60201b60201c565b620002e7565b600033905090565b6000600a60009054906101000a900473ffffffffffffffffffffffffffffffffffffffff16905081600a60006101000a81548173ffffffffffffffffffffffffffffffffffffffff021916908373ffffffffffffffffffffffffffffffffffffffff1602179055508173ffffffffffffffffffffffffffffffffffffffff168173ffffffffffffffffffffffffffffffffffffffff167f8be0079c531659141344cd1fd0a4f28419497f9722a3daafe3b4186f6b6457e060405160405180910390a35050565b828054620001e190620002b2565b90600052602060002090601f01602090048101928262000205576000855562000251565b82601f106200022057805160ff191683800117855562000251565b8280016001018555821562000251579182015b828111156200025057825182559160200191906001019062000233565b5b50905062000260919062000264565b5090565b5b808211156200027f57600081600090555060010162000265565b5090565b7f4e487b7100000000000000000000000000000000000000000000000000000000600052602260045260246000fd5b60006002820490506001821680620002cb57607f821691505b602082108103620002e157620002e062000283565b5b50919050565b614e3f80620002f76000396000f3fe60806040526004361061021a5760003560e01c8063728e0c3d11610123578063b88d4fde116100ab578063d0ebdbe71161006f578063d0ebdbe7146107b0578063e985e9c5146107d9578063eb8d244414610816578063f2fde38b14610841578063fa09e6301461086a5761021a565b8063b88d4fde146106c9578063c4d6a1fb146106f2578063c87b56dd1461071d578063ca3286f51461075a578063cf1582e8146107855761021a565b806391b7f5ed116100f257806391b7f5ed1461060757806395d89b4114610630578063a22cb4651461065b578063ae9de7f614610684578063b4e380d5146106a05761021a565b8063728e0c3d1461056f5780637ba5e6211461059a5780638b7afe2e146105b15780638da5cb5b146105dc5761021a565b806342966c68116101a65780636352211e116101755780636352211e1461048a5780636c0360eb146104c75780636f8b44b0146104f257806370a082311461051b578063715018a6146105585761021a565b806342966c68146103d05780634f6ccce7146103f957806355f804b314610436578063626be5671461045f5761021a565b806318160ddd116101ed57806318160ddd146102ed57806323b872dd146103185780632f745c59146103415780633f0ab9181461037e57806342842e0e146103a75761021a565b806301ffc9a71461021f57806306fdde031461025c578063081812fc14610287578063095ea7b3146102c4575b600080fd5b34801561022b57600080fd5b50610246600480360381019061024191906134b3565b610893565b60405161025391906134fb565b60405180910390f35b34801561026857600080fd5b506102716108a5565b60405161027e91906135af565b60405180910390f35b34801561029357600080fd5b506102ae60048036038101906102a99190613607565b610937565b6040516102bb9190613675565b60405180910390f35b3480156102d057600080fd5b506102eb60048036038101906102e691906136bc565b6109bc565b005b3480156102f957600080fd5b50610302610ad3565b60405161030f919061370b565b60405180910390f35b34801561032457600080fd5b5061033f600480360381019061033a9190613726565b610ae0565b005b34801561034d57600080fd5b50610368600480360381019061036391906136bc565b610b40565b604051610375919061370b565b60405180910390f35b34801561038a57600080fd5b506103a560048036038101906103a09190613779565b610be5565b005b3480156103b357600080fd5b506103ce60048036038101906103c99190613726565b610d63565b005b3480156103dc57600080fd5b506103f760048036038101906103f29190613607565b610d83565b005b34801561040557600080fd5b50610420600480360381019061041b9190613607565b610ddf565b60405161042d919061370b565b60405180910390f35b34801561044257600080fd5b5061045d600480360381019061045891906138ee565b610e50565b005b34801561046b57600080fd5b50610474610f45565b604051610481919061370b565b60405180910390f35b34801561049657600080fd5b506104b160048036038101906104ac9190613607565b610f56565b6040516104be9190613675565b60405180910390f35b3480156104d357600080fd5b506104dc611007565b6040516104e991906135af565b60405180910390f35b3480156104fe57600080fd5b5061051960048036038101906105149190613607565b611095565b005b34801561052757600080fd5b50610542600480360381019061053d9190613937565b61117a565b60405161054f919061370b565b60405180910390f35b34801561056457600080fd5b5061056d611231565b005b34801561057b57600080fd5b506105846112b9565b604051610591919061370b565b60405180910390f35b3480156105a657600080fd5b506105af6112bf565b005b3480156105bd57600080fd5b506105c66113c6565b6040516105d3919061370b565b60405180910390f35b3480156105e857600080fd5b506105f16114a9565b6040516105fe9190613675565b60405180910390f35b34801561061357600080fd5b5061062e60048036038101906106299190613607565b6114d3565b005b34801561063c57600080fd5b506106456115b8565b60405161065291906135af565b60405180910390f35b34801561066757600080fd5b50610682600480360381019061067d9190613990565b61164a565b005b61069e60048036038101906106999190613607565b6117ca565b005b3480156106ac57600080fd5b506106c760048036038101906106c291906136bc565b611a39565b005b3480156106d557600080fd5b506106f060048036038101906106eb9190613a71565b611bc5565b005b3480156106fe57600080fd5b50610707611c27565b60405161071491906134fb565b60405180910390f35b34801561072957600080fd5b50610744600480360381019061073f9190613607565b611c3e565b60405161075191906135af565b60405180910390f35b34801561076657600080fd5b5061076f611ce5565b60405161077c919061370b565b60405180910390f35b34801561079157600080fd5b5061079a611ceb565b6040516107a7919061370b565b60405180910390f35b3480156107bc57600080fd5b506107d760048036038101906107d29190613937565b611cf0565b005b3480156107e557600080fd5b5061080060048036038101906107fb9190613af4565b611db0565b60405161080d91906134fb565b60405180910390f35b34801561082257600080fd5b5061082b611e44565b60405161083891906134fb565b60405180910390f35b34801561084d57600080fd5b5061086860048036038101906108639190613937565b611e57565b005b34801561087657600080fd5b50610891600480360381019061088c9190613937565b611f4e565b005b600061089e82612122565b9050919050565b6060600080546108b490613b63565b80601f01602080910402602001604051908101604052809291908181526020018280546108e090613b63565b801561092d5780601f106109025761010080835404028352916020019161092d565b820191906000526020600020905b81548152906001019060200180831161091057829003601f168201915b5050505050905090565b60006109428261219c565b610981576040517f08c379a000000000000000000000000000000000000000000000000000000000815260040161097890613c06565b60405180910390fd5b6004600083815260200190815260200160002060009054906101000a900473ffffffffffffffffffffffffffffffffffffffff169050919050565b60006109c782610f56565b90508073ffffffffffffffffffffffffffffffffffffffff168373ffffffffffffffffffffffffffffffffffffffff1603610a37576040517f08c379a0000000000000000000000000000000000000000000000000000000008152600401610a2e90613c98565b60405180910390fd5b8073ffffffffffffffffffffffffffffffffffffffff16610a56612208565b73ffffffffffffffffffffffffffffffffffffffff161480610a855750610a8481610a7f612208565b611db0565b5b610ac4576040517f08c379a0000000000000000000000000000000000000000000000000000000008152600401610abb90613d2a565b60405180910390fd5b610ace8383612210565b505050565b6000600880549050905090565b610af1610aeb612208565b826122c9565b610b30576040517f08c379a0000000000000000000000000000000000000000000000000000000008152600401610b2790613dbc565b60405180910390fd5b610b3b8383836123a7565b505050565b6000610b4b8361117a565b8210610b8c576040517f08c379a0000000000000000000000000000000000000000000000000000000008152600401610b8390613e4e565b60405180910390fd5b600660008473ffffffffffffffffffffffffffffffffffffffff1673ffffffffffffffffffffffffffffffffffffffff168152602001908152602001600020600083815260200190815260200160002054905092915050565b610bed612208565b73ffffffffffffffffffffffffffffffffffffffff16610c0b6114a9565b73ffffffffffffffffffffffffffffffffffffffff161480610c815750610c30612208565b73ffffffffffffffffffffffffffffffffffffffff16601160009054906101000a900473ffffffffffffffffffffffffffffffffffffffff1673ffffffffffffffffffffffffffffffffffffffff16145b610cc0576040517f08c379a0000000000000000000000000000000000000000000000000000000008152600401610cb790613ee0565b60405180910390fd5b600c5482610ccc610ad3565b610cd69190613f2f565b1115610d17576040517f08c379a0000000000000000000000000000000000000000000000000000000008152600401610d0e90613fd1565b60405180910390fd5b60005b82811015610d5e57610d41826001610d32600b612602565b610d3c9190613f2f565b612610565b610d4b600b61262e565b8080610d5690613ff1565b915050610d1a565b505050565b610d7e83838360405180602001604052806000815250611bc5565b505050565b610d94610d8e612208565b826122c9565b610dd3576040517f08c379a0000000000000000000000000000000000000000000000000000000008152600401610dca906140ab565b60405180910390fd5b610ddc81612644565b50565b6000610de9610ad3565b8210610e2a576040517f08c379a0000000000000000000000000000000000000000000000000000000008152600401610e219061413d565b60405180910390fd5b60088281548110610e3e57610e3d61415d565b5b90600052602060002001549050919050565b610e58612208565b73ffffffffffffffffffffffffffffffffffffffff16610e766114a9565b73ffffffffffffffffffffffffffffffffffffffff161480610eec5750610e9b612208565b73ffffffffffffffffffffffffffffffffffffffff16601160009054906101000a900473ffffffffffffffffffffffffffffffffffffffff1673ffffffffffffffffffffffffffffffffffffffff16145b610f2b576040517f08c379a0000000000000000000000000000000000000000000000000000000008152600401610f2290613ee0565b60405180910390fd5b80600e9080519060200190610f419291906133a4565b5050565b6000610f51600b612602565b905090565b6000806002600084815260200190815260200160002060009054906101000a900473ffffffffffffffffffffffffffffffffffffffff169050600073ffffffffffffffffffffffffffffffffffffffff168173ffffffffffffffffffffffffffffffffffffffff1603610ffe576040517f08c379a0000000000000000000000000000000000000000000000000000000008152600401610ff5906141fe565b60405180910390fd5b80915050919050565b600e805461101490613b63565b80601f016020809104026020016040519081016040528092919081815260200182805461104090613b63565b801561108d5780601f106110625761010080835404028352916020019161108d565b820191906000526020600020905b81548152906001019060200180831161107057829003601f168201915b505050505081565b61109d612208565b73ffffffffffffffffffffffffffffffffffffffff166110bb6114a9565b73ffffffffffffffffffffffffffffffffffffffff16148061113157506110e0612208565b73ffffffffffffffffffffffffffffffffffffffff16601160009054906101000a900473ffffffffffffffffffffffffffffffffffffffff1673ffffffffffffffffffffffffffffffffffffffff16145b611170576040517f08c379a000000000000000000000000000000000000000000000000000000000815260040161116790613ee0565b60405180910390fd5b80600c8190555050565b60008073ffffffffffffffffffffffffffffffffffffffff168273ffffffffffffffffffffffffffffffffffffffff16036111ea576040517f08c379a00000000000000000000000000000000000000000000000000000000081526004016111e190614290565b60405180910390fd5b600360008373ffffffffffffffffffffffffffffffffffffffff1673ffffffffffffffffffffffffffffffffffffffff168152602001908152602001600020549050919050565b611239612208565b73ffffffffffffffffffffffffffffffffffffffff166112576114a9565b73ffffffffffffffffffffffffffffffffffffffff16146112ad576040517f08c379a00000000000000000000000000000000000000000000000000000000081526004016112a4906142fc565b60405180910390fd5b6112b76000612755565b565b600c5481565b6112c7612208565b73ffffffffffffffffffffffffffffffffffffffff166112e56114a9565b73ffffffffffffffffffffffffffffffffffffffff16148061135b575061130a612208565b73ffffffffffffffffffffffffffffffffffffffff16601160009054906101000a900473ffffffffffffffffffffffffffffffffffffffff1673ffffffffffffffffffffffffffffffffffffffff16145b61139a576040517f08c379a000000000000000000000000000000000000000000000000000000000815260040161139190613ee0565b60405180910390fd5b600f60009054906101000a900460ff1615600f60006101000a81548160ff021916908315150217905550565b60006113d0612208565b73ffffffffffffffffffffffffffffffffffffffff166113ee6114a9565b73ffffffffffffffffffffffffffffffffffffffff1614806114645750611413612208565b73ffffffffffffffffffffffffffffffffffffffff16601160009054906101000a900473ffffffffffffffffffffffffffffffffffffffff1673ffffffffffffffffffffffffffffffffffffffff16145b6114a3576040517f08c379a000000000000000000000000000000000000000000000000000000000815260040161149a90613ee0565b60405180910390fd5b47905090565b6000600a60009054906101000a900473ffffffffffffffffffffffffffffffffffffffff16905090565b6114db612208565b73ffffffffffffffffffffffffffffffffffffffff166114f96114a9565b73ffffffffffffffffffffffffffffffffffffffff16148061156f575061151e612208565b73ffffffffffffffffffffffffffffffffffffffff16601160009054906101000a900473ffffffffffffffffffffffffffffffffffffffff1673ffffffffffffffffffffffffffffffffffffffff16145b6115ae576040517f08c379a00000000000000000000000000000000000000000000000000000000081526004016115a590613ee0565b60405180910390fd5b80600d8190555050565b6060600180546115c790613b63565b80601f01602080910402602001604051908101604052809291908181526020018280546115f390613b63565b80156116405780601f1061161557610100808354040283529160200191611640565b820191906000526020600020905b81548152906001019060200180831161162357829003601f168201915b5050505050905090565b611652612208565b73ffffffffffffffffffffffffffffffffffffffff168273ffffffffffffffffffffffffffffffffffffffff16036116bf576040517f08c379a00000000000000000000000000000000000000000000000000000000081526004016116b690614368565b60405180910390fd5b80600560006116cc612208565b73ffffffffffffffffffffffffffffffffffffffff1673ffffffffffffffffffffffffffffffffffffffff16815260200190815260200160002060008473ffffffffffffffffffffffffffffffffffffffff1673ffffffffffffffffffffffffffffffffffffffff16815260200190815260200160002060006101000a81548160ff0219169083151502179055508173ffffffffffffffffffffffffffffffffffffffff16611779612208565b73ffffffffffffffffffffffffffffffffffffffff167f17307eab39ab6107e8899845ad3d59bd9653f200f220920489ca2b5937696c31836040516117be91906134fb565b60405180910390a35050565b600f60009054906101000a900460ff16611819576040517f08c379a0000000000000000000000000000000000000000000000000000000008152600401611810906143fa565b60405180910390fd5b3481600d54611828919061441a565b1115611869576040517f08c379a0000000000000000000000000000000000000000000000000000000008152600401611860906144c0565b60405180910390fd5b60028111156118ad576040517f08c379a00000000000000000000000000000000000000000000000000000000081526004016118a490614552565b60405180910390fd5b6002601060003373ffffffffffffffffffffffffffffffffffffffff1673ffffffffffffffffffffffffffffffffffffffff168152602001908152602001600020541115611930576040517f08c379a0000000000000000000000000000000000000000000000000000000008152600401611927906145e4565b60405180910390fd5b600c548161193c610ad3565b6119469190613f2f565b1115611987576040517f08c379a000000000000000000000000000000000000000000000000000000000815260040161197e90614650565b60405180910390fd5b60005b81811015611a3557600060016119a0600b612602565b6119aa9190613f2f565b9050600c548111611a21576119bf3382612610565b6119c9600b61262e565b6001601060003373ffffffffffffffffffffffffffffffffffffffff1673ffffffffffffffffffffffffffffffffffffffff1681526020019081526020016000206000828254611a199190613f2f565b925050819055505b508080611a2d90613ff1565b91505061198a565b5050565b611a41612208565b73ffffffffffffffffffffffffffffffffffffffff16611a5f6114a9565b73ffffffffffffffffffffffffffffffffffffffff161480611ad55750611a84612208565b73ffffffffffffffffffffffffffffffffffffffff16601160009054906101000a900473ffffffffffffffffffffffffffffffffffffffff1673ffffffffffffffffffffffffffffffffffffffff16145b611b14576040517f08c379a0000000000000000000000000000000000000000000000000000000008152600401611b0b90613ee0565b60405180910390fd5b60008273ffffffffffffffffffffffffffffffffffffffff1682604051611b3a906146a1565b60006040518083038185875af1925050503d8060008114611b77576040519150601f19603f3d011682016040523d82523d6000602084013e611b7c565b606091505b5050905080611bc0576040517f08c379a0000000000000000000000000000000000000000000000000000000008152600401611bb790614702565b60405180910390fd5b505050565b611bd6611bd0612208565b836122c9565b611c15576040517f08c379a0000000000000000000000000000000000000000000000000000000008152600401611c0c90613dbc565b60405180910390fd5b611c218484848461281b565b50505050565b6000600f60009054906101000a900460ff16905090565b6060611c498261219c565b611c88576040517f08c379a0000000000000000000000000000000000000000000000000000000008152600401611c7f90614794565b60405180910390fd5b6000611c92612877565b90506000815111611cb25760405180602001604052806000815250611cdd565b80611cbc84612909565b604051602001611ccd9291906147f0565b6040516020818303038152906040525b915050919050565b600d5481565b600281565b611cf8612208565b73ffffffffffffffffffffffffffffffffffffffff16611d166114a9565b73ffffffffffffffffffffffffffffffffffffffff1614611d6c576040517f08c379a0000000000000000000000000000000000000000000000000000000008152600401611d63906142fc565b60405180910390fd5b80601160006101000a81548173ffffffffffffffffffffffffffffffffffffffff021916908373ffffffffffffffffffffffffffffffffffffffff16021790555050565b6000600560008473ffffffffffffffffffffffffffffffffffffffff1673ffffffffffffffffffffffffffffffffffffffff16815260200190815260200160002060008373ffffffffffffffffffffffffffffffffffffffff1673ffffffffffffffffffffffffffffffffffffffff16815260200190815260200160002060009054906101000a900460ff16905092915050565b600f60009054906101000a900460ff1681565b611e5f612208565b73ffffffffffffffffffffffffffffffffffffffff16611e7d6114a9565b73ffffffffffffffffffffffffffffffffffffffff1614611ed3576040517f08c379a0000000000000000000000000000000000000000000000000000000008152600401611eca906142fc565b60405180910390fd5b600073ffffffffffffffffffffffffffffffffffffffff168173ffffffffffffffffffffffffffffffffffffffff1603611f42576040517f08c379a0000000000000000000000000000000000000000000000000000000008152600401611f3990614886565b60405180910390fd5b611f4b81612755565b50565b611f56612208565b73ffffffffffffffffffffffffffffffffffffffff16611f746114a9565b73ffffffffffffffffffffffffffffffffffffffff161480611fea5750611f99612208565b73ffffffffffffffffffffffffffffffffffffffff16601160009054906101000a900473ffffffffffffffffffffffffffffffffffffffff1673ffffffffffffffffffffffffffffffffffffffff16145b612029576040517f08c379a000000000000000000000000000000000000000000000000000000000815260040161202090613ee0565b60405180910390fd5b600047905060008111612071576040517f08c379a0000000000000000000000000000000000000000000000000000000008152600401612068906148f2565b60405180910390fd5b60008273ffffffffffffffffffffffffffffffffffffffff1682604051612097906146a1565b60006040518083038185875af1925050503d80600081146120d4576040519150601f19603f3d011682016040523d82523d6000602084013e6120d9565b606091505b505090508061211d576040517f08c379a000000000000000000000000000000000000000000000000000000000815260040161211490614702565b60405180910390fd5b505050565b60007f780e9d63000000000000000000000000000000000000000000000000000000007bffffffffffffffffffffffffffffffffffffffffffffffffffffffff1916827bffffffffffffffffffffffffffffffffffffffffffffffffffffffff19161480612195575061219482612a69565b5b9050919050565b60008073ffffffffffffffffffffffffffffffffffffffff166002600084815260200190815260200160002060009054906101000a900473ffffffffffffffffffffffffffffffffffffffff1673ffffffffffffffffffffffffffffffffffffffff1614159050919050565b600033905090565b816004600083815260200190815260200160002060006101000a81548173ffffffffffffffffffffffffffffffffffffffff021916908373ffffffffffffffffffffffffffffffffffffffff160217905550808273ffffffffffffffffffffffffffffffffffffffff1661228383610f56565b73ffffffffffffffffffffffffffffffffffffffff167f8c5be1e5ebec7d5bd14f71427d1e84f3dd0314c0f7b2291e5b200ac8c7c3b92560405160405180910390a45050565b60006122d48261219c565b612313576040517f08c379a000000000000000000000000000000000000000000000000000000000815260040161230a90614984565b60405180910390fd5b600061231e83610f56565b90508073ffffffffffffffffffffffffffffffffffffffff168473ffffffffffffffffffffffffffffffffffffffff16148061238d57508373ffffffffffffffffffffffffffffffffffffffff1661237584610937565b73ffffffffffffffffffffffffffffffffffffffff16145b8061239e575061239d8185611db0565b5b91505092915050565b8273ffffffffffffffffffffffffffffffffffffffff166123c782610f56565b73ffffffffffffffffffffffffffffffffffffffff161461241d576040517f08c379a000000000000000000000000000000000000000000000000000000000815260040161241490614a16565b60405180910390fd5b600073ffffffffffffffffffffffffffffffffffffffff168273ffffffffffffffffffffffffffffffffffffffff160361248c576040517f08c379a000000000000000000000000000000000000000000000000000000000815260040161248390614aa8565b60405180910390fd5b612497838383612b4b565b6124a2600082612210565b6001600360008573ffffffffffffffffffffffffffffffffffffffff1673ffffffffffffffffffffffffffffffffffffffff16815260200190815260200160002060008282546124f29190614ac8565b925050819055506001600360008473ffffffffffffffffffffffffffffffffffffffff1673ffffffffffffffffffffffffffffffffffffffff16815260200190815260200160002060008282546125499190613f2f565b92505081905550816002600083815260200190815260200160002060006101000a81548173ffffffffffffffffffffffffffffffffffffffff021916908373ffffffffffffffffffffffffffffffffffffffff160217905550808273ffffffffffffffffffffffffffffffffffffffff168473ffffffffffffffffffffffffffffffffffffffff167fddf252ad1be2c89b69c2b068fc378daa952ba7f163c4a11628f55a4df523b3ef60405160405180910390a4505050565b600081600001549050919050565b61262a828260405180602001604052806000815250612b5b565b5050565b6001816000016000828254019250508190555050565b600061264f82610f56565b905061265d81600084612b4b565b612668600083612210565b6001600360008373ffffffffffffffffffffffffffffffffffffffff1673ffffffffffffffffffffffffffffffffffffffff16815260200190815260200160002060008282546126b89190614ac8565b925050819055506002600083815260200190815260200160002060006101000a81549073ffffffffffffffffffffffffffffffffffffffff021916905581600073ffffffffffffffffffffffffffffffffffffffff168273ffffffffffffffffffffffffffffffffffffffff167fddf252ad1be2c89b69c2b068fc378daa952ba7f163c4a11628f55a4df523b3ef60405160405180910390a45050565b6000600a60009054906101000a900473ffffffffffffffffffffffffffffffffffffffff16905081600a60006101000a81548173ffffffffffffffffffffffffffffffffffffffff021916908373ffffffffffffffffffffffffffffffffffffffff1602179055508173ffffffffffffffffffffffffffffffffffffffff168173ffffffffffffffffffffffffffffffffffffffff167f8be0079c531659141344cd1fd0a4f28419497f9722a3daafe3b4186f6b6457e060405160405180910390a35050565b6128268484846123a7565b61283284848484612bb6565b612871576040517f08c379a000000000000000000000000000000000000000000000000000000000815260040161286890614b6e565b60405180910390fd5b50505050565b6060600e805461288690613b63565b80601f01602080910402602001604051908101604052809291908181526020018280546128b290613b63565b80156128ff5780601f106128d4576101008083540402835291602001916128ff565b820191906000526020600020905b8154815290600101906020018083116128e257829003601f168201915b5050505050905090565b606060008203612950576040518060400160405280600181526020017f30000000000000000000000000000000000000000000000000000000000000008152509050612a64565b600082905060005b6000821461298257808061296b90613ff1565b915050600a8261297b9190614bbd565b9150612958565b60008167ffffffffffffffff81111561299e5761299d6137c3565b5b6040519080825280601f01601f1916602001820160405280156129d05781602001600182028036833780820191505090505b5090505b60008514612a5d576001826129e99190614ac8565b9150600a856129f89190614bee565b6030612a049190613f2f565b60f81b818381518110612a1a57612a1961415d565b5b60200101907effffffffffffffffffffffffffffffffffffffffffffffffffffffffffffff1916908160001a905350600a85612a569190614bbd565b94506129d4565b8093505050505b919050565b60007f80ac58cd000000000000000000000000000000000000000000000000000000007bffffffffffffffffffffffffffffffffffffffffffffffffffffffff1916827bffffffffffffffffffffffffffffffffffffffffffffffffffffffff19161480612b3457507f5b5e139f000000000000000000000000000000000000000000000000000000007bffffffffffffffffffffffffffffffffffffffffffffffffffffffff1916827bffffffffffffffffffffffffffffffffffffffffffffffffffffffff1916145b80612b445750612b4382612d3d565b5b9050919050565b612b56838383612da7565b505050565b612b658383612eb9565b612b726000848484612bb6565b612bb1576040517f08c379a0000000000000000000000000000000000000000000000000000000008152600401612ba890614b6e565b60405180910390fd5b505050565b6000612bd78473ffffffffffffffffffffffffffffffffffffffff16613086565b15612d30578373ffffffffffffffffffffffffffffffffffffffff1663150b7a02612c00612208565b8786866040518563ffffffff1660e01b8152600401612c229493929190614c74565b6020604051808303816000875af1925050508015612c5e57506040513d601f19601f82011682018060405250810190612c5b9190614cd5565b60015b612ce0573d8060008114612c8e576040519150601f19603f3d011682016040523d82523d6000602084013e612c93565b606091505b506000815103612cd8576040517f08c379a0000000000000000000000000000000000000000000000000000000008152600401612ccf90614b6e565b60405180910390fd5b805181602001fd5b63150b7a0260e01b7bffffffffffffffffffffffffffffffffffffffffffffffffffffffff1916817bffffffffffffffffffffffffffffffffffffffffffffffffffffffff191614915050612d35565b600190505b949350505050565b60007f01ffc9a7000000000000000000000000000000000000000000000000000000007bffffffffffffffffffffffffffffffffffffffffffffffffffffffff1916827bffffffffffffffffffffffffffffffffffffffffffffffffffffffff1916149050919050565b612db2838383613099565b600073ffffffffffffffffffffffffffffffffffffffff168373ffffffffffffffffffffffffffffffffffffffff1603612df457612def8161309e565b612e33565b8173ffffffffffffffffffffffffffffffffffffffff168373ffffffffffffffffffffffffffffffffffffffff1614612e3257612e3183826130e7565b5b5b600073ffffffffffffffffffffffffffffffffffffffff168273ffffffffffffffffffffffffffffffffffffffff1603612e7557612e7081613254565b612eb4565b8273ffffffffffffffffffffffffffffffffffffffff168273ffffffffffffffffffffffffffffffffffffffff1614612eb357612eb28282613325565b5b5b505050565b600073ffffffffffffffffffffffffffffffffffffffff168273ffffffffffffffffffffffffffffffffffffffff1603612f28576040517f08c379a0000000000000000000000000000000000000000000000000000000008152600401612f1f90614d4e565b60405180910390fd5b612f318161219c565b15612f71576040517f08c379a0000000000000000000000000000000000000000000000000000000008152600401612f6890614dba565b60405180910390fd5b612f7d60008383612b4b565b6001600360008473ffffffffffffffffffffffffffffffffffffffff1673ffffffffffffffffffffffffffffffffffffffff1681526020019081526020016000206000828254612fcd9190613f2f565b92505081905550816002600083815260200190815260200160002060006101000a81548173ffffffffffffffffffffffffffffffffffffffff021916908373ffffffffffffffffffffffffffffffffffffffff160217905550808273ffffffffffffffffffffffffffffffffffffffff16600073ffffffffffffffffffffffffffffffffffffffff167fddf252ad1be2c89b69c2b068fc378daa952ba7f163c4a11628f55a4df523b3ef60405160405180910390a45050565b600080823b905060008111915050919050565b505050565b6008805490506009600083815260200190815260200160002081905550600881908060018154018082558091505060019003906000526020600020016000909190919091505550565b600060016130f48461117a565b6130fe9190614ac8565b90506000600760008481526020019081526020016000205490508181146131e3576000600660008673ffffffffffffffffffffffffffffffffffffffff1673ffffffffffffffffffffffffffffffffffffffff168152602001908152602001600020600084815260200190815260200160002054905080600660008773ffffffffffffffffffffffffffffffffffffffff1673ffffffffffffffffffffffffffffffffffffffff168152602001908152602001600020600084815260200190815260200160002081905550816007600083815260200190815260200160002081905550505b6007600084815260200190815260200160002060009055600660008573ffffffffffffffffffffffffffffffffffffffff1673ffffffffffffffffffffffffffffffffffffffff16815260200190815260200160002060008381526020019081526020016000206000905550505050565b600060016008805490506132689190614ac8565b90506000600960008481526020019081526020016000205490506000600883815481106132985761329761415d565b5b9060005260206000200154905080600883815481106132ba576132b961415d565b5b90600052602060002001819055508160096000838152602001908152602001600020819055506009600085815260200190815260200160002060009055600880548061330957613308614dda565b5b6001900381819060005260206000200160009055905550505050565b60006133308361117a565b905081600660008573ffffffffffffffffffffffffffffffffffffffff1673ffffffffffffffffffffffffffffffffffffffff168152602001908152602001600020600083815260200190815260200160002081905550806007600084815260200190815260200160002081905550505050565b8280546133b090613b63565b90600052602060002090601f0160209004810192826133d25760008555613419565b82601f106133eb57805160ff1916838001178555613419565b82800160010185558215613419579182015b828111156134185782518255916020019190600101906133fd565b5b509050613426919061342a565b5090565b5b8082111561344357600081600090555060010161342b565b5090565b6000604051905090565b600080fd5b600080fd5b60007fffffffff0000000000000000000000000000000000000000000000000000000082169050919050565b6134908161345b565b811461349b57600080fd5b50565b6000813590506134ad81613487565b92915050565b6000602082840312156134c9576134c8613451565b5b60006134d78482850161349e565b91505092915050565b60008115159050919050565b6134f5816134e0565b82525050565b600060208201905061351060008301846134ec565b92915050565b600081519050919050565b600082825260208201905092915050565b60005b83811015613550578082015181840152602081019050613535565b8381111561355f576000848401525b50505050565b6000601f19601f8301169050919050565b600061358182613516565b61358b8185613521565b935061359b818560208601613532565b6135a481613565565b840191505092915050565b600060208201905081810360008301526135c98184613576565b905092915050565b6000819050919050565b6135e4816135d1565b81146135ef57600080fd5b50565b600081359050613601816135db565b92915050565b60006020828403121561361d5761361c613451565b5b600061362b848285016135f2565b91505092915050565b600073ffffffffffffffffffffffffffffffffffffffff82169050919050565b600061365f82613634565b9050919050565b61366f81613654565b82525050565b600060208201905061368a6000830184613666565b92915050565b61369981613654565b81146136a457600080fd5b50565b6000813590506136b681613690565b92915050565b600080604083850312156136d3576136d2613451565b5b60006136e1858286016136a7565b92505060206136f2858286016135f2565b9150509250929050565b613705816135d1565b82525050565b600060208201905061372060008301846136fc565b92915050565b60008060006060848603121561373f5761373e613451565b5b600061374d868287016136a7565b935050602061375e868287016136a7565b925050604061376f868287016135f2565b9150509250925092565b600080604083850312156137905761378f613451565b5b600061379e858286016135f2565b92505060206137af858286016136a7565b9150509250929050565b600080fd5b600080fd5b7f4e487b7100000000000000000000000000000000000000000000000000000000600052604160045260246000fd5b6137fb82613565565b810181811067ffffffffffffffff8211171561381a576138196137c3565b5b80604052505050565b600061382d613447565b905061383982826137f2565b919050565b600067ffffffffffffffff821115613859576138586137c3565b5b61386282613565565b9050602081019050919050565b82818337600083830152505050565b600061389161388c8461383e565b613823565b9050828152602081018484840111156138ad576138ac6137be565b5b6138b884828561386f565b509392505050565b600082601f8301126138d5576138d46137b9565b5b81356138e584826020860161387e565b91505092915050565b60006020828403121561390457613903613451565b5b600082013567ffffffffffffffff81111561392257613921613456565b5b61392e848285016138c0565b91505092915050565b60006020828403121561394d5761394c613451565b5b600061395b848285016136a7565b91505092915050565b61396d816134e0565b811461397857600080fd5b50565b60008135905061398a81613964565b92915050565b600080604083850312156139a7576139a6613451565b5b60006139b5858286016136a7565b92505060206139c68582860161397b565b9150509250929050565b600067ffffffffffffffff8211156139eb576139ea6137c3565b5b6139f482613565565b9050602081019050919050565b6000613a14613a0f846139d0565b613823565b905082815260208101848484011115613a3057613a2f6137be565b5b613a3b84828561386f565b509392505050565b600082601f830112613a5857613a576137b9565b5b8135613a68848260208601613a01565b91505092915050565b60008060008060808587031215613a8b57613a8a613451565b5b6000613a99878288016136a7565b9450506020613aaa878288016136a7565b9350506040613abb878288016135f2565b925050606085013567ffffffffffffffff811115613adc57613adb613456565b5b613ae887828801613a43565b91505092959194509250565b60008060408385031215613b0b57613b0a613451565b5b6000613b19858286016136a7565b9250506020613b2a858286016136a7565b9150509250929050565b7f4e487b7100000000000000000000000000000000000000000000000000000000600052602260045260246000fd5b60006002820490506001821680613b7b57607f821691505b602082108103613b8e57613b8d613b34565b5b50919050565b7f4552433732313a20617070726f76656420717565727920666f72206e6f6e657860008201527f697374656e7420746f6b656e0000000000000000000000000000000000000000602082015250565b6000613bf0602c83613521565b9150613bfb82613b94565b604082019050919050565b60006020820190508181036000830152613c1f81613be3565b9050919050565b7f4552433732313a20617070726f76616c20746f2063757272656e74206f776e6560008201527f7200000000000000000000000000000000000000000000000000000000000000602082015250565b6000613c82602183613521565b9150613c8d82613c26565b604082019050919050565b60006020820190508181036000830152613cb181613c75565b9050919050565b7f4552433732313a20617070726f76652063616c6c6572206973206e6f74206f7760008201527f6e6572206e6f7220617070726f76656420666f7220616c6c0000000000000000602082015250565b6000613d14603883613521565b9150613d1f82613cb8565b604082019050919050565b60006020820190508181036000830152613d4381613d07565b9050919050565b7f4552433732313a207472616e736665722063616c6c6572206973206e6f74206f60008201527f776e6572206e6f7220617070726f766564000000000000000000000000000000602082015250565b6000613da6603183613521565b9150613db182613d4a565b604082019050919050565b60006020820190508181036000830152613dd581613d99565b9050919050565b7f455243373231456e756d657261626c653a206f776e657220696e646578206f7560008201527f74206f6620626f756e6473000000000000000000000000000000000000000000602082015250565b6000613e38602b83613521565b9150613e4382613ddc565b604082019050919050565b60006020820190508181036000830152613e6781613e2b565b9050919050565b7f43616c6c6572206973206e6f7420746865206f776e6572206f72206d616e616760008201527f6572000000000000000000000000000000000000000000000000000000000000602082015250565b6000613eca602283613521565b9150613ed582613e6e565b604082019050919050565b60006020820190508181036000830152613ef981613ebd565b9050919050565b7f4e487b7100000000000000000000000000000000000000000000000000000000600052601160045260246000fd5b6000613f3a826135d1565b9150613f45836135d1565b9250827fffffffffffffffffffffffffffffffffffffffffffffffffffffffffffffffff03821115613f7a57613f79613f00565b5b828201905092915050565b7f416363657373205061737320536f6c64204f7574000000000000000000000000600082015250565b6000613fbb601483613521565b9150613fc682613f85565b602082019050919050565b60006020820190508181036000830152613fea81613fae565b9050919050565b6000613ffc826135d1565b91507fffffffffffffffffffffffffffffffffffffffffffffffffffffffffffffffff820361402e5761402d613f00565b5b600182019050919050565b7f4552433732314275726e61626c653a2063616c6c6572206973206e6f74206f7760008201527f6e6572206e6f7220617070726f76656400000000000000000000000000000000602082015250565b6000614095603083613521565b91506140a082614039565b604082019050919050565b600060208201905081810360008301526140c481614088565b9050919050565b7f455243373231456e756d657261626c653a20676c6f62616c20696e646578206f60008201527f7574206f6620626f756e64730000000000000000000000000000000000000000602082015250565b6000614127602c83613521565b9150614132826140cb565b604082019050919050565b600060208201905081810360008301526141568161411a565b9050919050565b7f4e487b7100000000000000000000000000000000000000000000000000000000600052603260045260246000fd5b7f4552433732313a206f776e657220717565727920666f72206e6f6e657869737460008201527f656e7420746f6b656e0000000000000000000000000000000000000000000000602082015250565b60006141e8602983613521565b91506141f38261418c565b604082019050919050565b60006020820190508181036000830152614217816141db565b9050919050565b7f4552433732313a2062616c616e636520717565727920666f7220746865207a6560008201527f726f206164647265737300000000000000000000000000000000000000000000602082015250565b600061427a602a83613521565b91506142858261421e565b604082019050919050565b600060208201905081810360008301526142a98161426d565b9050919050565b7f4f776e61626c653a2063616c6c6572206973206e6f7420746865206f776e6572600082015250565b60006142e6602083613521565b91506142f1826142b0565b602082019050919050565b60006020820190508181036000830152614315816142d9565b9050919050565b7f4552433732313a20617070726f766520746f2063616c6c657200000000000000600082015250565b6000614352601983613521565b915061435d8261431c565b602082019050919050565b6000602082019050818103600083015261438181614345565b9050919050565b7f53616c65206d7573742062652061637469766520746f206d696e74204163636560008201527f7373205061737300000000000000000000000000000000000000000000000000602082015250565b60006143e4602783613521565b91506143ef82614388565b604082019050919050565b60006020820190508181036000830152614413816143d7565b9050919050565b6000614425826135d1565b9150614430836135d1565b9250817fffffffffffffffffffffffffffffffffffffffffffffffffffffffffffffffff048311821515161561446957614468613f00565b5b828202905092915050565b7f45746865722076616c75652073656e74206973206e6f7420636f727265637400600082015250565b60006144aa601f83613521565b91506144b582614474565b602082019050919050565b600060208201905081810360008301526144d98161449d565b9050919050565b7f596f752063616e206f6e6c79206d696e7420312041636365737320706173736560008201527f7320617420612074696d65000000000000000000000000000000000000000000602082015250565b600061453c602b83613521565b9150614547826144e0565b604082019050919050565b6000602082019050818103600083015261456b8161452f565b9050919050565b7f507572636861736520776f756c64206578656564206d6178207061737365732060008201527f7065722077616c6c657400000000000000000000000000000000000000000000602082015250565b60006145ce602a83613521565b91506145d982614572565b604082019050919050565b600060208201905081810360008301526145fd816145c1565b9050919050565b7f4163636573732050617373657320536f6c64204f757400000000000000000000600082015250565b600061463a601683613521565b915061464582614604565b602082019050919050565b600060208201905081810360008301526146698161462d565b9050919050565b600081905092915050565b50565b600061468b600083614670565b91506146968261467b565b600082019050919050565b60006146ac8261467e565b9150819050919050565b7f5472616e73666572206661696c65642e00000000000000000000000000000000600082015250565b60006146ec601083613521565b91506146f7826146b6565b602082019050919050565b6000602082019050818103600083015261471b816146df565b9050919050565b7f4552433732314d657461646174613a2055524920717565727920666f72206e6f60008201527f6e6578697374656e7420746f6b656e0000000000000000000000000000000000602082015250565b600061477e602f83613521565b915061478982614722565b604082019050919050565b600060208201905081810360008301526147ad81614771565b9050919050565b600081905092915050565b60006147ca82613516565b6147d481856147b4565b93506147e4818560208601613532565b80840191505092915050565b60006147fc82856147bf565b915061480882846147bf565b91508190509392505050565b7f4f776e61626c653a206e6577206f776e657220697320746865207a65726f206160008201527f6464726573730000000000000000000000000000000000000000000000000000602082015250565b6000614870602683613521565b915061487b82614814565b604082019050919050565b6000602082019050818103600083015261489f81614863565b9050919050565b7f42616c616e6365206973207a65726f0000000000000000000000000000000000600082015250565b60006148dc600f83613521565b91506148e7826148a6565b602082019050919050565b6000602082019050818103600083015261490b816148cf565b9050919050565b7f4552433732313a206f70657261746f7220717565727920666f72206e6f6e657860008201527f697374656e7420746f6b656e0000000000000000000000000000000000000000602082015250565b600061496e602c83613521565b915061497982614912565b604082019050919050565b6000602082019050818103600083015261499d81614961565b9050919050565b7f4552433732313a207472616e73666572206f6620746f6b656e2074686174206960008201527f73206e6f74206f776e0000000000000000000000000000000000000000000000602082015250565b6000614a00602983613521565b9150614a0b826149a4565b604082019050919050565b60006020820190508181036000830152614a2f816149f3565b9050919050565b7f4552433732313a207472616e7366657220746f20746865207a65726f2061646460008201527f7265737300000000000000000000000000000000000000000000000000000000602082015250565b6000614a92602483613521565b9150614a9d82614a36565b604082019050919050565b60006020820190508181036000830152614ac181614a85565b9050919050565b6000614ad3826135d1565b9150614ade836135d1565b925082821015614af157614af0613f00565b5b828203905092915050565b7f4552433732313a207472616e7366657220746f206e6f6e20455243373231526560008201527f63656976657220696d706c656d656e7465720000000000000000000000000000602082015250565b6000614b58603283613521565b9150614b6382614afc565b604082019050919050565b60006020820190508181036000830152614b8781614b4b565b9050919050565b7f4e487b7100000000000000000000000000000000000000000000000000000000600052601260045260246000fd5b6000614bc8826135d1565b9150614bd3836135d1565b925082614be357614be2614b8e565b5b828204905092915050565b6000614bf9826135d1565b9150614c04836135d1565b925082614c1457614c13614b8e565b5b828206905092915050565b600081519050919050565b600082825260208201905092915050565b6000614c4682614c1f565b614c508185614c2a565b9350614c60818560208601613532565b614c6981613565565b840191505092915050565b6000608082019050614c896000830187613666565b614c966020830186613666565b614ca360408301856136fc565b8181036060830152614cb58184614c3b565b905095945050505050565b600081519050614ccf81613487565b92915050565b600060208284031215614ceb57614cea613451565b5b6000614cf984828501614cc0565b91505092915050565b7f4552433732313a206d696e7420746f20746865207a65726f2061646472657373600082015250565b6000614d38602083613521565b9150614d4382614d02565b602082019050919050565b60006020820190508181036000830152614d6781614d2b565b9050919050565b7f4552433732313a20746f6b656e20616c7265616479206d696e74656400000000600082015250565b6000614da4601c83613521565b9150614daf82614d6e565b602082019050919050565b60006020820190508181036000830152614dd381614d97565b9050919050565b7f4e487b7100000000000000000000000000000000000000000000000000000000600052603160045260246000fdfea264697066735822122095c65c9192a4b3b63be2806e9f2873645a371b0c7b34e4e27a92c5481f28fd4364736f6c634300080d0033",
  "immutableReferences": {},
  "source": "//SPDX-License-Identifier: MIT\r\npragma solidity ^0.8.0;\r\n\r\nimport \"@openzeppelin/contracts/token/ERC721/ERC721.sol\";\r\nimport \"@openzeppelin/contracts/token/ERC721/extensions/ERC721Enumerable.sol\";\r\nimport \"@openzeppelin/contracts/token/ERC721/extensions/ERC721Burnable.sol\";\r\nimport \"@openzeppelin/contracts/access/Ownable.sol\";\r\nimport \"@openzeppelin/contracts/utils/Address.sol\";\r\nimport \"@openzeppelin/contracts/utils/Counters.sol\";\r\n\r\n\r\ncontract BlackBoxAccessPass is ERC721, ERC721Enumerable, ERC721Burnable, Ownable {\r\n    using Counters for Counters.Counter;\r\n\r\n    Counters.Counter private _accessPassCounter;\r\n    uint public MAX_ACCESS_PASS = 3500;\r\n    uint256 public passPrice = 1.95 ether; //1.95 ETH\r\n    string public baseURI;\r\n    bool public saleIsActive = false;\r\n    uint public constant maxPassTxn = 2;\r\n    mapping (address => uint256) passesInWallet;\r\n    address private _manager;\r\n\r\n    constructor() ERC721(\"BLACK BOX COLLECTIVE\", \"ACCESS PASS\") Ownable() {\r\n    }\r\n    function setManager(address manager) public onlyOwner {\r\n        _manager = manager;\r\n    }\r\n    \r\n    modifier onlyOwnerOrManager() {\r\n        require(owner() == _msgSender() || _manager == _msgSender(), \"Caller is not the owner or manager\");\r\n        _;\r\n    }\r\n\r\n    function setBaseURI(string memory newBaseURI) public onlyOwnerOrManager {\r\n        baseURI = newBaseURI;\r\n    }\r\n\r\n    function setMaxSupply(uint _maxSupply) public onlyOwnerOrManager {\r\n        MAX_ACCESS_PASS = _maxSupply;\r\n    }\r\n    \r\n    function setPrice(uint256 _price) public onlyOwnerOrManager {\r\n        passPrice = _price;\r\n    }\r\n\r\n    function _baseURI() internal view virtual override returns (string memory){\r\n        return baseURI;\r\n    }\r\n\r\n    function totalToken() public view returns (uint256) {\r\n        return _accessPassCounter.current();\r\n    }\r\n    \r\n    function contractBalance() public view onlyOwnerOrManager returns (uint256) {\r\n        return address(this).balance;\r\n    }\r\n\r\n    function flipSale() public onlyOwnerOrManager {\r\n        saleIsActive = !saleIsActive;\r\n    }\r\n\r\n    function stateSale() public view returns (bool){\r\n        return saleIsActive;\r\n    }\r\n\r\n    function withdrawAll(address _address) public onlyOwnerOrManager {\r\n        uint256 balance = address(this).balance;\r\n        require(balance > 0,\"Balance is zero\");\r\n        (bool success, ) = _address.call{value: balance}(\"\");\r\n        require(success, \"Transfer failed.\");\r\n    }\r\n\r\n    function _widthdraw(address _address, uint256 _amount) public onlyOwnerOrManager{\r\n        (bool success, ) = _address.call{value: _amount}(\"\");\r\n        require(success, \"Transfer failed.\");\r\n    }\r\n\r\n    function reserveMintPass(uint256 reserveAmount, address mintAddress) public onlyOwnerOrManager {\r\n        require(totalSupply() + reserveAmount <= MAX_ACCESS_PASS, \"Access Pass Sold Out\");\r\n        for (uint256 i=0; i<reserveAmount; i++){\r\n            _safeMint(mintAddress, _accessPassCounter.current() + 1);\r\n            _accessPassCounter.increment();\r\n        }\r\n    }\r\n\r\n    function mintAccessPass(uint256 numberOfTokens) public payable {\r\n        require(saleIsActive, \"Sale must be active to mint Access Pass\");\r\n        require(passPrice * numberOfTokens <= msg.value, \"Ether value sent is not correct\");\r\n        require(numberOfTokens <= maxPassTxn, \"You can only mint 1 Access passes at a time\");\r\n        require(passesInWallet[msg.sender] <= 2,\"Purchase would exeed max passes per wallet\");\r\n        require(totalSupply() + numberOfTokens <= MAX_ACCESS_PASS, \"Access Passes Sold Out\");\r\n\r\n        for (uint256 i=0; i<numberOfTokens; i++){\r\n            uint256 mintIndex = _accessPassCounter.current()+1;\r\n            if (mintIndex <= MAX_ACCESS_PASS){\r\n                _safeMint(msg.sender, mintIndex);\r\n                _accessPassCounter.increment();\r\n                passesInWallet[msg.sender] += 1;\r\n            }\r\n        }\r\n    }\r\n\r\n    function _beforeTokenTransfer(address from, address to, uint256 tokenId) internal override(ERC721, ERC721Enumerable) {\r\n        super._beforeTokenTransfer(from, to, tokenId);\r\n    }\r\n\r\n    function supportsInterface(bytes4 interfaceId) public view override(ERC721, ERC721Enumerable) returns (bool) {\r\n        return super.supportsInterface(interfaceId);\r\n    }\r\n\r\n}",
  "sourcePath": "C:\\Users\\nickn\\NFT-Projects\\BlackBoxCollective\\AccessPass-NFT\\src\\contracts\\BlackBoxAccessPass.sol",
  "compiler": {
    "name": "solc",
    "version": "0.8.13+commit.abaa5c0e.Emscripten.clang"
  },
  "schemaVersion": "3.4.4",
  "updatedAt": "2022-05-03T20:23:01.359Z",
  "networkType": "ethereum",
  "devdoc": {
    "kind": "dev",
    "methods": {
      "approve(address,uint256)": {
        "details": "See {IERC721-approve}."
      },
      "balanceOf(address)": {
        "details": "See {IERC721-balanceOf}."
      },
      "burn(uint256)": {
        "details": "Burns `tokenId`. See {ERC721-_burn}. Requirements: - The caller must own `tokenId` or be an approved operator."
      },
      "getApproved(uint256)": {
        "details": "See {IERC721-getApproved}."
      },
      "isApprovedForAll(address,address)": {
        "details": "See {IERC721-isApprovedForAll}."
      },
      "name()": {
        "details": "See {IERC721Metadata-name}."
      },
      "owner()": {
        "details": "Returns the address of the current owner."
      },
      "ownerOf(uint256)": {
        "details": "See {IERC721-ownerOf}."
      },
      "renounceOwnership()": {
        "details": "Leaves the contract without owner. It will not be possible to call `onlyOwner` functions anymore. Can only be called by the current owner. NOTE: Renouncing ownership will leave the contract without an owner, thereby removing any functionality that is only available to the owner."
      },
      "safeTransferFrom(address,address,uint256)": {
        "details": "See {IERC721-safeTransferFrom}."
      },
      "safeTransferFrom(address,address,uint256,bytes)": {
        "details": "See {IERC721-safeTransferFrom}."
      },
      "setApprovalForAll(address,bool)": {
        "details": "See {IERC721-setApprovalForAll}."
      },
      "symbol()": {
        "details": "See {IERC721Metadata-symbol}."
      },
      "tokenByIndex(uint256)": {
        "details": "See {IERC721Enumerable-tokenByIndex}."
      },
      "tokenOfOwnerByIndex(address,uint256)": {
        "details": "See {IERC721Enumerable-tokenOfOwnerByIndex}."
      },
      "tokenURI(uint256)": {
        "details": "See {IERC721Metadata-tokenURI}."
      },
      "totalSupply()": {
        "details": "See {IERC721Enumerable-totalSupply}."
      },
      "transferFrom(address,address,uint256)": {
        "details": "See {IERC721-transferFrom}."
      },
      "transferOwnership(address)": {
        "details": "Transfers ownership of the contract to a new account (`newOwner`). Can only be called by the current owner."
      }
    },
    "version": 1
  },
  "userdoc": {
    "kind": "user",
    "methods": {},
    "version": 1
  }
}