{
  "_format": "hh-sol-artifact-1",
  "contractName": "BlackBoxCollectiveAlphaClass",
  "sourceName": "contracts/BlackBoxCollectiveAlphaClass.sol",
  "abi": [
    {
      "inputs": [],
      "stateMutability": "nonpayable",
      "type": "constructor"
    },
    {
      "anonymous": false,
      "inputs": [
        {
          "indexed": true,
          "internalType": "address",
          "name": "owner",
          "type": "address"
        },
        {
          "indexed": true,
          "internalType": "address",
          "name": "approved",
          "type": "address"
        },
        {
          "indexed": true,
          "internalType": "uint256",
          "name": "tokenId",
          "type": "uint256"
        }
      ],
      "name": "Approval",
      "type": "event"
    },
    {
      "anonymous": false,
      "inputs": [
        {
          "indexed": true,
          "internalType": "address",
          "name": "owner",
          "type": "address"
        },
        {
          "indexed": true,
          "internalType": "address",
          "name": "operator",
          "type": "address"
        },
        {
          "indexed": false,
          "internalType": "bool",
          "name": "approved",
          "type": "bool"
        }
      ],
      "name": "ApprovalForAll",
      "type": "event"
    },
    {
      "anonymous": false,
      "inputs": [
        {
          "indexed": true,
          "internalType": "address",
          "name": "previousOwner",
          "type": "address"
        },
        {
          "indexed": true,
          "internalType": "address",
          "name": "newOwner",
          "type": "address"
        }
      ],
      "name": "OwnershipTransferred",
      "type": "event"
    },
    {
      "anonymous": false,
      "inputs": [
        {
          "indexed": true,
          "internalType": "address",
          "name": "from",
          "type": "address"
        },
        {
          "indexed": true,
          "internalType": "address",
          "name": "to",
          "type": "address"
        },
        {
          "indexed": true,
          "internalType": "uint256",
          "name": "tokenId",
          "type": "uint256"
        }
      ],
      "name": "Transfer",
      "type": "event"
    },
    {
      "inputs": [],
      "name": "MAX_ALPHA_CLASS",
      "outputs": [
        {
          "internalType": "uint256",
          "name": "",
          "type": "uint256"
        }
      ],
      "stateMutability": "view",
      "type": "function"
    },
    {
      "inputs": [
        {
          "internalType": "address",
          "name": "_address",
          "type": "address"
        },
        {
          "internalType": "uint256",
          "name": "_amount",
          "type": "uint256"
        }
      ],
      "name": "_widthdraw",
      "outputs": [],
      "stateMutability": "nonpayable",
      "type": "function"
    },
    {
      "inputs": [
        {
          "internalType": "address",
          "name": "to",
          "type": "address"
        },
        {
          "internalType": "uint256",
          "name": "tokenId",
          "type": "uint256"
        }
      ],
      "name": "approve",
      "outputs": [],
      "stateMutability": "nonpayable",
      "type": "function"
    },
    {
      "inputs": [
        {
          "internalType": "address",
          "name": "owner",
          "type": "address"
        }
      ],
      "name": "balanceOf",
      "outputs": [
        {
          "internalType": "uint256",
          "name": "",
          "type": "uint256"
        }
      ],
      "stateMutability": "view",
      "type": "function"
    },
    {
      "inputs": [],
      "name": "baseURI",
      "outputs": [
        {
          "internalType": "string",
          "name": "",
          "type": "string"
        }
      ],
      "stateMutability": "view",
      "type": "function"
    },
    {
      "inputs": [
        {
          "internalType": "uint256",
          "name": "tokenId",
          "type": "uint256"
        }
      ],
      "name": "burn",
      "outputs": [],
      "stateMutability": "nonpayable",
      "type": "function"
    },
    {
      "inputs": [],
      "name": "contractBalance",
      "outputs": [
        {
          "internalType": "uint256",
          "name": "",
          "type": "uint256"
        }
      ],
      "stateMutability": "view",
      "type": "function"
    },
    {
      "inputs": [],
      "name": "flipSale",
      "outputs": [],
      "stateMutability": "nonpayable",
      "type": "function"
    },
    {
      "inputs": [
        {
          "internalType": "uint256",
          "name": "tokenId",
          "type": "uint256"
        }
      ],
      "name": "getApproved",
      "outputs": [
        {
          "internalType": "address",
          "name": "",
          "type": "address"
        }
      ],
      "stateMutability": "view",
      "type": "function"
    },
    {
      "inputs": [],
      "name": "getManager",
      "outputs": [
        {
          "internalType": "address",
          "name": "",
          "type": "address"
        }
      ],
      "stateMutability": "view",
      "type": "function"
    },
    {
      "inputs": [
        {
          "internalType": "address",
          "name": "owner",
          "type": "address"
        },
        {
          "internalType": "address",
          "name": "operator",
          "type": "address"
        }
      ],
      "name": "isApprovedForAll",
      "outputs": [
        {
          "internalType": "bool",
          "name": "",
          "type": "bool"
        }
      ],
      "stateMutability": "view",
      "type": "function"
    },
    {
      "inputs": [],
      "name": "maxPassTxn",
      "outputs": [
        {
          "internalType": "uint256",
          "name": "",
          "type": "uint256"
        }
      ],
      "stateMutability": "view",
      "type": "function"
    },
    {
      "inputs": [
        {
          "internalType": "uint256",
          "name": "numberOfTokens",
          "type": "uint256"
        }
      ],
      "name": "mintAlphaPass",
      "outputs": [],
      "stateMutability": "payable",
      "type": "function"
    },
    {
      "inputs": [],
      "name": "name",
      "outputs": [
        {
          "internalType": "string",
          "name": "",
          "type": "string"
        }
      ],
      "stateMutability": "view",
      "type": "function"
    },
    {
      "inputs": [],
      "name": "owner",
      "outputs": [
        {
          "internalType": "address",
          "name": "",
          "type": "address"
        }
      ],
      "stateMutability": "view",
      "type": "function"
    },
    {
      "inputs": [
        {
          "internalType": "uint256",
          "name": "tokenId",
          "type": "uint256"
        }
      ],
      "name": "ownerOf",
      "outputs": [
        {
          "internalType": "address",
          "name": "",
          "type": "address"
        }
      ],
      "stateMutability": "view",
      "type": "function"
    },
    {
      "inputs": [],
      "name": "passPrice",
      "outputs": [
        {
          "internalType": "uint256",
          "name": "",
          "type": "uint256"
        }
      ],
      "stateMutability": "view",
      "type": "function"
    },
    {
      "inputs": [],
      "name": "renounceOwnership",
      "outputs": [],
      "stateMutability": "nonpayable",
      "type": "function"
    },
    {
      "inputs": [
        {
          "internalType": "uint256",
          "name": "reserveAmount",
          "type": "uint256"
        },
        {
          "internalType": "address",
          "name": "mintAddress",
          "type": "address"
        }
      ],
      "name": "reserveMintPass",
      "outputs": [],
      "stateMutability": "nonpayable",
      "type": "function"
    },
    {
      "inputs": [
        {
          "internalType": "address",
          "name": "from",
          "type": "address"
        },
        {
          "internalType": "address",
          "name": "to",
          "type": "address"
        },
        {
          "internalType": "uint256",
          "name": "tokenId",
          "type": "uint256"
        }
      ],
      "name": "safeTransferFrom",
      "outputs": [],
      "stateMutability": "nonpayable",
      "type": "function"
    },
    {
      "inputs": [
        {
          "internalType": "address",
          "name": "from",
          "type": "address"
        },
        {
          "internalType": "address",
          "name": "to",
          "type": "address"
        },
        {
          "internalType": "uint256",
          "name": "tokenId",
          "type": "uint256"
        },
        {
          "internalType": "bytes",
          "name": "_data",
          "type": "bytes"
        }
      ],
      "name": "safeTransferFrom",
      "outputs": [],
      "stateMutability": "nonpayable",
      "type": "function"
    },
    {
      "inputs": [],
      "name": "saleIsActive",
      "outputs": [
        {
          "internalType": "bool",
          "name": "",
          "type": "bool"
        }
      ],
      "stateMutability": "view",
      "type": "function"
    },
    {
      "inputs": [
        {
          "internalType": "address",
          "name": "operator",
          "type": "address"
        },
        {
          "internalType": "bool",
          "name": "approved",
          "type": "bool"
        }
      ],
      "name": "setApprovalForAll",
      "outputs": [],
      "stateMutability": "nonpayable",
      "type": "function"
    },
    {
      "inputs": [
        {
          "internalType": "string",
          "name": "newBaseURI",
          "type": "string"
        }
      ],
      "name": "setBaseURI",
      "outputs": [],
      "stateMutability": "nonpayable",
      "type": "function"
    },
    {
      "inputs": [
        {
          "internalType": "address",
          "name": "manager",
          "type": "address"
        }
      ],
      "name": "setManager",
      "outputs": [],
      "stateMutability": "nonpayable",
      "type": "function"
    },
    {
      "inputs": [
        {
          "internalType": "uint256",
          "name": "_maxSupply",
          "type": "uint256"
        }
      ],
      "name": "setMaxSupply",
      "outputs": [],
      "stateMutability": "nonpayable",
      "type": "function"
    },
    {
      "inputs": [
        {
          "internalType": "uint256",
          "name": "_price",
          "type": "uint256"
        }
      ],
      "name": "setPrice",
      "outputs": [],
      "stateMutability": "nonpayable",
      "type": "function"
    },
    {
      "inputs": [],
      "name": "stateSale",
      "outputs": [
        {
          "internalType": "bool",
          "name": "",
          "type": "bool"
        }
      ],
      "stateMutability": "view",
      "type": "function"
    },
    {
      "inputs": [
        {
          "internalType": "bytes4",
          "name": "interfaceId",
          "type": "bytes4"
        }
      ],
      "name": "supportsInterface",
      "outputs": [
        {
          "internalType": "bool",
          "name": "",
          "type": "bool"
        }
      ],
      "stateMutability": "view",
      "type": "function"
    },
    {
      "inputs": [],
      "name": "symbol",
      "outputs": [
        {
          "internalType": "string",
          "name": "",
          "type": "string"
        }
      ],
      "stateMutability": "view",
      "type": "function"
    },
    {
      "inputs": [
        {
          "internalType": "uint256",
          "name": "index",
          "type": "uint256"
        }
      ],
      "name": "tokenByIndex",
      "outputs": [
        {
          "internalType": "uint256",
          "name": "",
          "type": "uint256"
        }
      ],
      "stateMutability": "view",
      "type": "function"
    },
    {
      "inputs": [
        {
          "internalType": "address",
          "name": "owner",
          "type": "address"
        },
        {
          "internalType": "uint256",
          "name": "index",
          "type": "uint256"
        }
      ],
      "name": "tokenOfOwnerByIndex",
      "outputs": [
        {
          "internalType": "uint256",
          "name": "",
          "type": "uint256"
        }
      ],
      "stateMutability": "view",
      "type": "function"
    },
    {
      "inputs": [
        {
          "internalType": "uint256",
          "name": "tokenId",
          "type": "uint256"
        }
      ],
      "name": "tokenURI",
      "outputs": [
        {
          "internalType": "string",
          "name": "",
          "type": "string"
        }
      ],
      "stateMutability": "view",
      "type": "function"
    },
    {
      "inputs": [],
      "name": "totalSupply",
      "outputs": [
        {
          "internalType": "uint256",
          "name": "",
          "type": "uint256"
        }
      ],
      "stateMutability": "view",
      "type": "function"
    },
    {
      "inputs": [],
      "name": "totalToken",
      "outputs": [
        {
          "internalType": "uint256",
          "name": "",
          "type": "uint256"
        }
      ],
      "stateMutability": "view",
      "type": "function"
    },
    {
      "inputs": [
        {
          "internalType": "address",
          "name": "from",
          "type": "address"
        },
        {
          "internalType": "address",
          "name": "to",
          "type": "address"
        },
        {
          "internalType": "uint256",
          "name": "tokenId",
          "type": "uint256"
        }
      ],
      "name": "transferFrom",
      "outputs": [],
      "stateMutability": "nonpayable",
      "type": "function"
    },
    {
      "inputs": [
        {
          "internalType": "address",
          "name": "newOwner",
          "type": "address"
        }
      ],
      "name": "transferOwnership",
      "outputs": [],
      "stateMutability": "nonpayable",
      "type": "function"
    },
    {
      "inputs": [
        {
          "internalType": "address",
          "name": "_address",
          "type": "address"
        }
      ],
      "name": "withdrawAll",
      "outputs": [],
      "stateMutability": "nonpayable",
      "type": "function"
    }
  ],
  "bytecode": "0x60806040526032600c55674563918244f40000600d556000600f60006101000a81548160ff0219169083151502179055503480156200003d57600080fd5b506040518060400160405280601481526020017f424c41434b20424f5820434f4c4c4543544956450000000000000000000000008152506040518060400160405280600b81526020017f414c50484120434c4153530000000000000000000000000000000000000000008152508160009080519060200190620000c2929190620001d2565b508060019080519060200190620000db929190620001d2565b505050620000fe620000f26200010460201b60201c565b6200010c60201b60201c565b620002e7565b600033905090565b6000600a60009054906101000a900473ffffffffffffffffffffffffffffffffffffffff16905081600a60006101000a81548173ffffffffffffffffffffffffffffffffffffffff021916908373ffffffffffffffffffffffffffffffffffffffff1602179055508173ffffffffffffffffffffffffffffffffffffffff168173ffffffffffffffffffffffffffffffffffffffff167f8be0079c531659141344cd1fd0a4f28419497f9722a3daafe3b4186f6b6457e060405160405180910390a35050565b828054620001e09062000282565b90600052602060002090601f01602090048101928262000204576000855562000250565b82601f106200021f57805160ff191683800117855562000250565b8280016001018555821562000250579182015b828111156200024f57825182559160200191906001019062000232565b5b5090506200025f919062000263565b5090565b5b808211156200027e57600081600090555060010162000264565b5090565b600060028204905060018216806200029b57607f821691505b60208210811415620002b257620002b1620002b8565b5b50919050565b7f4e487b7100000000000000000000000000000000000000000000000000000000600052602260045260246000fd5b614f9280620002f76000396000f3fe6080604052600436106102255760003560e01c80637ba5e62111610123578063c4d6a1fb116100ab578063d50095841161006f578063d5009584146107e4578063e985e9c51461080f578063eb8d24441461084c578063f2fde38b14610877578063fa09e630146108a057610225565b8063c4d6a1fb146106fd578063c87b56dd14610728578063ca3286f514610765578063cf1582e814610790578063d0ebdbe7146107bb57610225565b806395d89b41116100f257806395d89b411461063b578063a22cb46514610666578063b4e380d51461068f578063b6e7dad5146106b8578063b88d4fde146106d457610225565b80637ba5e621146105a55780638b7afe2e146105bc5780638da5cb5b146105e757806391b7f5ed1461061257610225565b806342842e0e116101b15780636352211e116101755780636352211e146104c05780636c0360eb146104fd5780636f8b44b01461052857806370a0823114610551578063715018a61461058e57610225565b806342842e0e146103dd57806342966c68146104065780634f6ccce71461042f57806355f804b31461046c578063626be5671461049557610225565b806318160ddd116101f857806318160ddd146102f857806323b872dd146103235780632f0bfbf21461034c5780632f745c59146103775780633f0ab918146103b457610225565b806301ffc9a71461022a57806306fdde0314610267578063081812fc14610292578063095ea7b3146102cf575b600080fd5b34801561023657600080fd5b50610251600480360381019061024c919061399a565b6108c9565b60405161025e9190613fd6565b60405180910390f35b34801561027357600080fd5b5061027c6108db565b6040516102899190613ff1565b60405180910390f35b34801561029e57600080fd5b506102b960048036038101906102b49190613a2d565b61096d565b6040516102c69190613f6f565b60405180910390f35b3480156102db57600080fd5b506102f660048036038101906102f1919061395e565b6109f2565b005b34801561030457600080fd5b5061030d610b0a565b60405161031a9190614373565b60405180910390f35b34801561032f57600080fd5b5061034a60048036038101906103459190613858565b610b17565b005b34801561035857600080fd5b50610361610b77565b60405161036e9190614373565b60405180910390f35b34801561038357600080fd5b5061039e6004803603810190610399919061395e565b610b7d565b6040516103ab9190614373565b60405180910390f35b3480156103c057600080fd5b506103db60048036038101906103d69190613a56565b610c22565b005b3480156103e957600080fd5b5061040460048036038101906103ff9190613858565b610da0565b005b34801561041257600080fd5b5061042d60048036038101906104289190613a2d565b610dc0565b005b34801561043b57600080fd5b5061045660048036038101906104519190613a2d565b610e1c565b6040516104639190614373565b60405180910390f35b34801561047857600080fd5b50610493600480360381019061048e91906139ec565b610eb3565b005b3480156104a157600080fd5b506104aa610fa8565b6040516104b79190614373565b60405180910390f35b3480156104cc57600080fd5b506104e760048036038101906104e29190613a2d565b610fb9565b6040516104f49190613f6f565b60405180910390f35b34801561050957600080fd5b5061051261106b565b60405161051f9190613ff1565b60405180910390f35b34801561053457600080fd5b5061054f600480360381019061054a9190613a2d565b6110f9565b005b34801561055d57600080fd5b50610578600480360381019061057391906137f3565b6111de565b6040516105859190614373565b60405180910390f35b34801561059a57600080fd5b506105a3611296565b005b3480156105b157600080fd5b506105ba61131e565b005b3480156105c857600080fd5b506105d1611425565b6040516105de9190614373565b60405180910390f35b3480156105f357600080fd5b506105fc611508565b6040516106099190613f6f565b60405180910390f35b34801561061e57600080fd5b5061063960048036038101906106349190613a2d565b611532565b005b34801561064757600080fd5b50610650611617565b60405161065d9190613ff1565b60405180910390f35b34801561067257600080fd5b5061068d60048036038101906106889190613922565b6116a9565b005b34801561069b57600080fd5b506106b660048036038101906106b1919061395e565b6116bf565b005b6106d260048036038101906106cd9190613a2d565b61184b565b005b3480156106e057600080fd5b506106fb60048036038101906106f691906138a7565b611aba565b005b34801561070957600080fd5b50610712611b1c565b60405161071f9190613fd6565b60405180910390f35b34801561073457600080fd5b5061074f600480360381019061074a9190613a2d565b611b33565b60405161075c9190613ff1565b60405180910390f35b34801561077157600080fd5b5061077a611bda565b6040516107879190614373565b60405180910390f35b34801561079c57600080fd5b506107a5611be0565b6040516107b29190614373565b60405180910390f35b3480156107c757600080fd5b506107e260048036038101906107dd91906137f3565b611be5565b005b3480156107f057600080fd5b506107f9611ca5565b6040516108069190613f6f565b60405180910390f35b34801561081b57600080fd5b506108366004803603810190610831919061381c565b611daa565b6040516108439190613fd6565b60405180910390f35b34801561085857600080fd5b50610861611e3e565b60405161086e9190613fd6565b60405180910390f35b34801561088357600080fd5b5061089e600480360381019061089991906137f3565b611e51565b005b3480156108ac57600080fd5b506108c760048036038101906108c291906137f3565b611f49565b005b60006108d48261211d565b9050919050565b6060600080546108ea9061462e565b80601f01602080910402602001604051908101604052809291908181526020018280546109169061462e565b80156109635780601f1061093857610100808354040283529160200191610963565b820191906000526020600020905b81548152906001019060200180831161094657829003601f168201915b5050505050905090565b600061097882612197565b6109b7576040517f08c379a00000000000000000000000000000000000000000000000000000000081526004016109ae90614233565b60405180910390fd5b6004600083815260200190815260200160002060009054906101000a900473ffffffffffffffffffffffffffffffffffffffff169050919050565b60006109fd82610fb9565b90508073ffffffffffffffffffffffffffffffffffffffff168373ffffffffffffffffffffffffffffffffffffffff161415610a6e576040517f08c379a0000000000000000000000000000000000000000000000000000000008152600401610a6590614293565b60405180910390fd5b8073ffffffffffffffffffffffffffffffffffffffff16610a8d612203565b73ffffffffffffffffffffffffffffffffffffffff161480610abc5750610abb81610ab6612203565b611daa565b5b610afb576040517f08c379a0000000000000000000000000000000000000000000000000000000008152600401610af290614173565b60405180910390fd5b610b05838361220b565b505050565b6000600880549050905090565b610b28610b22612203565b826122c4565b610b67576040517f08c379a0000000000000000000000000000000000000000000000000000000008152600401610b5e906142d3565b60405180910390fd5b610b728383836123a2565b505050565b600c5481565b6000610b88836111de565b8210610bc9576040517f08c379a0000000000000000000000000000000000000000000000000000000008152600401610bc090614013565b60405180910390fd5b600660008473ffffffffffffffffffffffffffffffffffffffff1673ffffffffffffffffffffffffffffffffffffffff168152602001908152602001600020600083815260200190815260200160002054905092915050565b610c2a612203565b73ffffffffffffffffffffffffffffffffffffffff16610c48611508565b73ffffffffffffffffffffffffffffffffffffffff161480610cbe5750610c6d612203565b73ffffffffffffffffffffffffffffffffffffffff16601160009054906101000a900473ffffffffffffffffffffffffffffffffffffffff1673ffffffffffffffffffffffffffffffffffffffff16145b610cfd576040517f08c379a0000000000000000000000000000000000000000000000000000000008152600401610cf4906140f3565b60405180910390fd5b600c5482610d09610b0a565b610d139190614463565b1115610d54576040517f08c379a0000000000000000000000000000000000000000000000000000000008152600401610d4b90614353565b60405180910390fd5b60005b82811015610d9b57610d7e826001610d6f600b612609565b610d799190614463565b612617565b610d88600b612635565b8080610d9390614691565b915050610d57565b505050565b610dbb83838360405180602001604052806000815250611aba565b505050565b610dd1610dcb612203565b826122c4565b610e10576040517f08c379a0000000000000000000000000000000000000000000000000000000008152600401610e0790614313565b60405180910390fd5b610e198161264b565b50565b6000610e26610b0a565b8210610e67576040517f08c379a0000000000000000000000000000000000000000000000000000000008152600401610e5e906142f3565b60405180910390fd5b60088281548110610ea1577f4e487b7100000000000000000000000000000000000000000000000000000000600052603260045260246000fd5b90600052602060002001549050919050565b610ebb612203565b73ffffffffffffffffffffffffffffffffffffffff16610ed9611508565b73ffffffffffffffffffffffffffffffffffffffff161480610f4f5750610efe612203565b73ffffffffffffffffffffffffffffffffffffffff16601160009054906101000a900473ffffffffffffffffffffffffffffffffffffffff1673ffffffffffffffffffffffffffffffffffffffff16145b610f8e576040517f08c379a0000000000000000000000000000000000000000000000000000000008152600401610f85906140f3565b60405180910390fd5b80600e9080519060200190610fa4929190613617565b5050565b6000610fb4600b612609565b905090565b6000806002600084815260200190815260200160002060009054906101000a900473ffffffffffffffffffffffffffffffffffffffff169050600073ffffffffffffffffffffffffffffffffffffffff168173ffffffffffffffffffffffffffffffffffffffff161415611062576040517f08c379a0000000000000000000000000000000000000000000000000000000008152600401611059906141b3565b60405180910390fd5b80915050919050565b600e80546110789061462e565b80601f01602080910402602001604051908101604052809291908181526020018280546110a49061462e565b80156110f15780601f106110c6576101008083540402835291602001916110f1565b820191906000526020600020905b8154815290600101906020018083116110d457829003601f168201915b505050505081565b611101612203565b73ffffffffffffffffffffffffffffffffffffffff1661111f611508565b73ffffffffffffffffffffffffffffffffffffffff1614806111955750611144612203565b73ffffffffffffffffffffffffffffffffffffffff16601160009054906101000a900473ffffffffffffffffffffffffffffffffffffffff1673ffffffffffffffffffffffffffffffffffffffff16145b6111d4576040517f08c379a00000000000000000000000000000000000000000000000000000000081526004016111cb906140f3565b60405180910390fd5b80600c8190555050565b60008073ffffffffffffffffffffffffffffffffffffffff168273ffffffffffffffffffffffffffffffffffffffff16141561124f576040517f08c379a000000000000000000000000000000000000000000000000000000000815260040161124690614193565b60405180910390fd5b600360008373ffffffffffffffffffffffffffffffffffffffff1673ffffffffffffffffffffffffffffffffffffffff168152602001908152602001600020549050919050565b61129e612203565b73ffffffffffffffffffffffffffffffffffffffff166112bc611508565b73ffffffffffffffffffffffffffffffffffffffff1614611312576040517f08c379a000000000000000000000000000000000000000000000000000000000815260040161130990614253565b60405180910390fd5b61131c6000612768565b565b611326612203565b73ffffffffffffffffffffffffffffffffffffffff16611344611508565b73ffffffffffffffffffffffffffffffffffffffff1614806113ba5750611369612203565b73ffffffffffffffffffffffffffffffffffffffff16601160009054906101000a900473ffffffffffffffffffffffffffffffffffffffff1673ffffffffffffffffffffffffffffffffffffffff16145b6113f9576040517f08c379a00000000000000000000000000000000000000000000000000000000081526004016113f0906140f3565b60405180910390fd5b600f60009054906101000a900460ff1615600f60006101000a81548160ff021916908315150217905550565b600061142f612203565b73ffffffffffffffffffffffffffffffffffffffff1661144d611508565b73ffffffffffffffffffffffffffffffffffffffff1614806114c35750611472612203565b73ffffffffffffffffffffffffffffffffffffffff16601160009054906101000a900473ffffffffffffffffffffffffffffffffffffffff1673ffffffffffffffffffffffffffffffffffffffff16145b611502576040517f08c379a00000000000000000000000000000000000000000000000000000000081526004016114f9906140f3565b60405180910390fd5b47905090565b6000600a60009054906101000a900473ffffffffffffffffffffffffffffffffffffffff16905090565b61153a612203565b73ffffffffffffffffffffffffffffffffffffffff16611558611508565b73ffffffffffffffffffffffffffffffffffffffff1614806115ce575061157d612203565b73ffffffffffffffffffffffffffffffffffffffff16601160009054906101000a900473ffffffffffffffffffffffffffffffffffffffff1673ffffffffffffffffffffffffffffffffffffffff16145b61160d576040517f08c379a0000000000000000000000000000000000000000000000000000000008152600401611604906140f3565b60405180910390fd5b80600d8190555050565b6060600180546116269061462e565b80601f01602080910402602001604051908101604052809291908181526020018280546116529061462e565b801561169f5780601f106116745761010080835404028352916020019161169f565b820191906000526020600020905b81548152906001019060200180831161168257829003601f168201915b5050505050905090565b6116bb6116b4612203565b838361282e565b5050565b6116c7612203565b73ffffffffffffffffffffffffffffffffffffffff166116e5611508565b73ffffffffffffffffffffffffffffffffffffffff16148061175b575061170a612203565b73ffffffffffffffffffffffffffffffffffffffff16601160009054906101000a900473ffffffffffffffffffffffffffffffffffffffff1673ffffffffffffffffffffffffffffffffffffffff16145b61179a576040517f08c379a0000000000000000000000000000000000000000000000000000000008152600401611791906140f3565b60405180910390fd5b60008273ffffffffffffffffffffffffffffffffffffffff16826040516117c090613f5a565b60006040518083038185875af1925050503d80600081146117fd576040519150601f19603f3d011682016040523d82523d6000602084013e611802565b606091505b5050905080611846576040517f08c379a000000000000000000000000000000000000000000000000000000000815260040161183d906142b3565b60405180910390fd5b505050565b600f60009054906101000a900460ff1661189a576040517f08c379a000000000000000000000000000000000000000000000000000000000815260040161189190614213565b60405180910390fd5b3481600d546118a991906144ea565b11156118ea576040517f08c379a00000000000000000000000000000000000000000000000000000000081526004016118e190614113565b60405180910390fd5b600181111561192e576040517f08c379a0000000000000000000000000000000000000000000000000000000008152600401611925906141d3565b60405180910390fd5b6001601060003373ffffffffffffffffffffffffffffffffffffffff1673ffffffffffffffffffffffffffffffffffffffff1681526020019081526020016000205411156119b1576040517f08c379a00000000000000000000000000000000000000000000000000000000081526004016119a890614153565b60405180910390fd5b600c54816119bd610b0a565b6119c79190614463565b1115611a08576040517f08c379a00000000000000000000000000000000000000000000000000000000081526004016119ff90614353565b60405180910390fd5b60005b81811015611ab65760006001611a21600b612609565b611a2b9190614463565b9050600c548111611aa257611a403382612617565b611a4a600b612635565b6001601060003373ffffffffffffffffffffffffffffffffffffffff1673ffffffffffffffffffffffffffffffffffffffff1681526020019081526020016000206000828254611a9a9190614463565b925050819055505b508080611aae90614691565b915050611a0b565b5050565b611acb611ac5612203565b836122c4565b611b0a576040517f08c379a0000000000000000000000000000000000000000000000000000000008152600401611b01906142d3565b60405180910390fd5b611b168484848461299b565b50505050565b6000600f60009054906101000a900460ff16905090565b6060611b3e82612197565b611b7d576040517f08c379a0000000000000000000000000000000000000000000000000000000008152600401611b7490614273565b60405180910390fd5b6000611b876129f7565b90506000815111611ba75760405180602001604052806000815250611bd2565b80611bb184612a89565b604051602001611bc2929190613f36565b6040516020818303038152906040525b915050919050565b600d5481565b600181565b611bed612203565b73ffffffffffffffffffffffffffffffffffffffff16611c0b611508565b73ffffffffffffffffffffffffffffffffffffffff1614611c61576040517f08c379a0000000000000000000000000000000000000000000000000000000008152600401611c5890614253565b60405180910390fd5b80601160006101000a81548173ffffffffffffffffffffffffffffffffffffffff021916908373ffffffffffffffffffffffffffffffffffffffff16021790555050565b6000611caf612203565b73ffffffffffffffffffffffffffffffffffffffff16611ccd611508565b73ffffffffffffffffffffffffffffffffffffffff161480611d435750611cf2612203565b73ffffffffffffffffffffffffffffffffffffffff16601160009054906101000a900473ffffffffffffffffffffffffffffffffffffffff1673ffffffffffffffffffffffffffffffffffffffff16145b611d82576040517f08c379a0000000000000000000000000000000000000000000000000000000008152600401611d79906140f3565b60405180910390fd5b601160009054906101000a900473ffffffffffffffffffffffffffffffffffffffff16905090565b6000600560008473ffffffffffffffffffffffffffffffffffffffff1673ffffffffffffffffffffffffffffffffffffffff16815260200190815260200160002060008373ffffffffffffffffffffffffffffffffffffffff1673ffffffffffffffffffffffffffffffffffffffff16815260200190815260200160002060009054906101000a900460ff16905092915050565b600f60009054906101000a900460ff1681565b611e59612203565b73ffffffffffffffffffffffffffffffffffffffff16611e77611508565b73ffffffffffffffffffffffffffffffffffffffff1614611ecd576040517f08c379a0000000000000000000000000000000000000000000000000000000008152600401611ec490614253565b60405180910390fd5b600073ffffffffffffffffffffffffffffffffffffffff168173ffffffffffffffffffffffffffffffffffffffff161415611f3d576040517f08c379a0000000000000000000000000000000000000000000000000000000008152600401611f3490614053565b60405180910390fd5b611f4681612768565b50565b611f51612203565b73ffffffffffffffffffffffffffffffffffffffff16611f6f611508565b73ffffffffffffffffffffffffffffffffffffffff161480611fe55750611f94612203565b73ffffffffffffffffffffffffffffffffffffffff16601160009054906101000a900473ffffffffffffffffffffffffffffffffffffffff1673ffffffffffffffffffffffffffffffffffffffff16145b612024576040517f08c379a000000000000000000000000000000000000000000000000000000000815260040161201b906140f3565b60405180910390fd5b60004790506000811161206c576040517f08c379a000000000000000000000000000000000000000000000000000000000815260040161206390614333565b60405180910390fd5b60008273ffffffffffffffffffffffffffffffffffffffff168260405161209290613f5a565b60006040518083038185875af1925050503d80600081146120cf576040519150601f19603f3d011682016040523d82523d6000602084013e6120d4565b606091505b5050905080612118576040517f08c379a000000000000000000000000000000000000000000000000000000000815260040161210f906142b3565b60405180910390fd5b505050565b60007f780e9d63000000000000000000000000000000000000000000000000000000007bffffffffffffffffffffffffffffffffffffffffffffffffffffffff1916827bffffffffffffffffffffffffffffffffffffffffffffffffffffffff19161480612190575061218f82612c36565b5b9050919050565b60008073ffffffffffffffffffffffffffffffffffffffff166002600084815260200190815260200160002060009054906101000a900473ffffffffffffffffffffffffffffffffffffffff1673ffffffffffffffffffffffffffffffffffffffff1614159050919050565b600033905090565b816004600083815260200190815260200160002060006101000a81548173ffffffffffffffffffffffffffffffffffffffff021916908373ffffffffffffffffffffffffffffffffffffffff160217905550808273ffffffffffffffffffffffffffffffffffffffff1661227e83610fb9565b73ffffffffffffffffffffffffffffffffffffffff167f8c5be1e5ebec7d5bd14f71427d1e84f3dd0314c0f7b2291e5b200ac8c7c3b92560405160405180910390a45050565b60006122cf82612197565b61230e576040517f08c379a000000000000000000000000000000000000000000000000000000000815260040161230590614133565b60405180910390fd5b600061231983610fb9565b90508073ffffffffffffffffffffffffffffffffffffffff168473ffffffffffffffffffffffffffffffffffffffff16148061238857508373ffffffffffffffffffffffffffffffffffffffff166123708461096d565b73ffffffffffffffffffffffffffffffffffffffff16145b8061239957506123988185611daa565b5b91505092915050565b8273ffffffffffffffffffffffffffffffffffffffff166123c282610fb9565b73ffffffffffffffffffffffffffffffffffffffff1614612418576040517f08c379a000000000000000000000000000000000000000000000000000000000815260040161240f90614073565b60405180910390fd5b600073ffffffffffffffffffffffffffffffffffffffff168273ffffffffffffffffffffffffffffffffffffffff161415612488576040517f08c379a000000000000000000000000000000000000000000000000000000000815260040161247f906140b3565b60405180910390fd5b612493838383612d18565b61249e60008261220b565b6001600360008573ffffffffffffffffffffffffffffffffffffffff1673ffffffffffffffffffffffffffffffffffffffff16815260200190815260200160002060008282546124ee9190614544565b925050819055506001600360008473ffffffffffffffffffffffffffffffffffffffff1673ffffffffffffffffffffffffffffffffffffffff16815260200190815260200160002060008282546125459190614463565b92505081905550816002600083815260200190815260200160002060006101000a81548173ffffffffffffffffffffffffffffffffffffffff021916908373ffffffffffffffffffffffffffffffffffffffff160217905550808273ffffffffffffffffffffffffffffffffffffffff168473ffffffffffffffffffffffffffffffffffffffff167fddf252ad1be2c89b69c2b068fc378daa952ba7f163c4a11628f55a4df523b3ef60405160405180910390a4612604838383612d28565b505050565b600081600001549050919050565b612631828260405180602001604052806000815250612d2d565b5050565b6001816000016000828254019250508190555050565b600061265682610fb9565b905061266481600084612d18565b61266f60008361220b565b6001600360008373ffffffffffffffffffffffffffffffffffffffff1673ffffffffffffffffffffffffffffffffffffffff16815260200190815260200160002060008282546126bf9190614544565b925050819055506002600083815260200190815260200160002060006101000a81549073ffffffffffffffffffffffffffffffffffffffff021916905581600073ffffffffffffffffffffffffffffffffffffffff168273ffffffffffffffffffffffffffffffffffffffff167fddf252ad1be2c89b69c2b068fc378daa952ba7f163c4a11628f55a4df523b3ef60405160405180910390a461276481600084612d28565b5050565b6000600a60009054906101000a900473ffffffffffffffffffffffffffffffffffffffff16905081600a60006101000a81548173ffffffffffffffffffffffffffffffffffffffff021916908373ffffffffffffffffffffffffffffffffffffffff1602179055508173ffffffffffffffffffffffffffffffffffffffff168173ffffffffffffffffffffffffffffffffffffffff167f8be0079c531659141344cd1fd0a4f28419497f9722a3daafe3b4186f6b6457e060405160405180910390a35050565b8173ffffffffffffffffffffffffffffffffffffffff168373ffffffffffffffffffffffffffffffffffffffff16141561289d576040517f08c379a0000000000000000000000000000000000000000000000000000000008152600401612894906140d3565b60405180910390fd5b80600560008573ffffffffffffffffffffffffffffffffffffffff1673ffffffffffffffffffffffffffffffffffffffff16815260200190815260200160002060008473ffffffffffffffffffffffffffffffffffffffff1673ffffffffffffffffffffffffffffffffffffffff16815260200190815260200160002060006101000a81548160ff0219169083151502179055508173ffffffffffffffffffffffffffffffffffffffff168373ffffffffffffffffffffffffffffffffffffffff167f17307eab39ab6107e8899845ad3d59bd9653f200f220920489ca2b5937696c318360405161298e9190613fd6565b60405180910390a3505050565b6129a68484846123a2565b6129b284848484612d88565b6129f1576040517f08c379a00000000000000000000000000000000000000000000000000000000081526004016129e890614033565b60405180910390fd5b50505050565b6060600e8054612a069061462e565b80601f0160208091040260200160405190810160405280929190818152602001828054612a329061462e565b8015612a7f5780601f10612a5457610100808354040283529160200191612a7f565b820191906000526020600020905b815481529060010190602001808311612a6257829003601f168201915b5050505050905090565b60606000821415612ad1576040518060400160405280600181526020017f30000000000000000000000000000000000000000000000000000000000000008152509050612c31565b600082905060005b60008214612b03578080612aec90614691565b915050600a82612afc91906144b9565b9150612ad9565b60008167ffffffffffffffff811115612b45577f4e487b7100000000000000000000000000000000000000000000000000000000600052604160045260246000fd5b6040519080825280601f01601f191660200182016040528015612b775781602001600182028036833780820191505090505b5090505b60008514612c2a57600182612b909190614544565b9150600a85612b9f91906146da565b6030612bab9190614463565b60f81b818381518110612be7577f4e487b7100000000000000000000000000000000000000000000000000000000600052603260045260246000fd5b60200101907effffffffffffffffffffffffffffffffffffffffffffffffffffffffffffff1916908160001a905350600a85612c2391906144b9565b9450612b7b565b8093505050505b919050565b60007f80ac58cd000000000000000000000000000000000000000000000000000000007bffffffffffffffffffffffffffffffffffffffffffffffffffffffff1916827bffffffffffffffffffffffffffffffffffffffffffffffffffffffff19161480612d0157507f5b5e139f000000000000000000000000000000000000000000000000000000007bffffffffffffffffffffffffffffffffffffffffffffffffffffffff1916827bffffffffffffffffffffffffffffffffffffffffffffffffffffffff1916145b80612d115750612d1082612f1f565b5b9050919050565b612d23838383612f89565b505050565b505050565b612d37838361309d565b612d446000848484612d88565b612d83576040517f08c379a0000000000000000000000000000000000000000000000000000000008152600401612d7a90614033565b60405180910390fd5b505050565b6000612da98473ffffffffffffffffffffffffffffffffffffffff16613277565b15612f12578373ffffffffffffffffffffffffffffffffffffffff1663150b7a02612dd2612203565b8786866040518563ffffffff1660e01b8152600401612df49493929190613f8a565b602060405180830381600087803b158015612e0e57600080fd5b505af1925050508015612e3f57506040513d601f19601f82011682018060405250810190612e3c91906139c3565b60015b612ec2573d8060008114612e6f576040519150601f19603f3d011682016040523d82523d6000602084013e612e74565b606091505b50600081511415612eba576040517f08c379a0000000000000000000000000000000000000000000000000000000008152600401612eb190614033565b60405180910390fd5b805181602001fd5b63150b7a0260e01b7bffffffffffffffffffffffffffffffffffffffffffffffffffffffff1916817bffffffffffffffffffffffffffffffffffffffffffffffffffffffff191614915050612f17565b600190505b949350505050565b60007f01ffc9a7000000000000000000000000000000000000000000000000000000007bffffffffffffffffffffffffffffffffffffffffffffffffffffffff1916827bffffffffffffffffffffffffffffffffffffffffffffffffffffffff1916149050919050565b612f9483838361329a565b600073ffffffffffffffffffffffffffffffffffffffff168373ffffffffffffffffffffffffffffffffffffffff161415612fd757612fd28161329f565b613016565b8173ffffffffffffffffffffffffffffffffffffffff168373ffffffffffffffffffffffffffffffffffffffff16146130155761301483826132e8565b5b5b600073ffffffffffffffffffffffffffffffffffffffff168273ffffffffffffffffffffffffffffffffffffffff1614156130595761305481613455565b613098565b8273ffffffffffffffffffffffffffffffffffffffff168273ffffffffffffffffffffffffffffffffffffffff1614613097576130968282613598565b5b5b505050565b600073ffffffffffffffffffffffffffffffffffffffff168273ffffffffffffffffffffffffffffffffffffffff16141561310d576040517f08c379a0000000000000000000000000000000000000000000000000000000008152600401613104906141f3565b60405180910390fd5b61311681612197565b15613156576040517f08c379a000000000000000000000000000000000000000000000000000000000815260040161314d90614093565b60405180910390fd5b61316260008383612d18565b6001600360008473ffffffffffffffffffffffffffffffffffffffff1673ffffffffffffffffffffffffffffffffffffffff16815260200190815260200160002060008282546131b29190614463565b92505081905550816002600083815260200190815260200160002060006101000a81548173ffffffffffffffffffffffffffffffffffffffff021916908373ffffffffffffffffffffffffffffffffffffffff160217905550808273ffffffffffffffffffffffffffffffffffffffff16600073ffffffffffffffffffffffffffffffffffffffff167fddf252ad1be2c89b69c2b068fc378daa952ba7f163c4a11628f55a4df523b3ef60405160405180910390a461327360008383612d28565b5050565b6000808273ffffffffffffffffffffffffffffffffffffffff163b119050919050565b505050565b6008805490506009600083815260200190815260200160002081905550600881908060018154018082558091505060019003906000526020600020016000909190919091505550565b600060016132f5846111de565b6132ff9190614544565b90506000600760008481526020019081526020016000205490508181146133e4576000600660008673ffffffffffffffffffffffffffffffffffffffff1673ffffffffffffffffffffffffffffffffffffffff168152602001908152602001600020600084815260200190815260200160002054905080600660008773ffffffffffffffffffffffffffffffffffffffff1673ffffffffffffffffffffffffffffffffffffffff168152602001908152602001600020600084815260200190815260200160002081905550816007600083815260200190815260200160002081905550505b6007600084815260200190815260200160002060009055600660008573ffffffffffffffffffffffffffffffffffffffff1673ffffffffffffffffffffffffffffffffffffffff16815260200190815260200160002060008381526020019081526020016000206000905550505050565b600060016008805490506134699190614544565b90506000600960008481526020019081526020016000205490506000600883815481106134bf577f4e487b7100000000000000000000000000000000000000000000000000000000600052603260045260246000fd5b906000526020600020015490508060088381548110613507577f4e487b7100000000000000000000000000000000000000000000000000000000600052603260045260246000fd5b90600052602060002001819055508160096000838152602001908152602001600020819055506009600085815260200190815260200160002060009055600880548061357c577f4e487b7100000000000000000000000000000000000000000000000000000000600052603160045260246000fd5b6001900381819060005260206000200160009055905550505050565b60006135a3836111de565b905081600660008573ffffffffffffffffffffffffffffffffffffffff1673ffffffffffffffffffffffffffffffffffffffff168152602001908152602001600020600083815260200190815260200160002081905550806007600084815260200190815260200160002081905550505050565b8280546136239061462e565b90600052602060002090601f016020900481019282613645576000855561368c565b82601f1061365e57805160ff191683800117855561368c565b8280016001018555821561368c579182015b8281111561368b578251825591602001919060010190613670565b5b509050613699919061369d565b5090565b5b808211156136b657600081600090555060010161369e565b5090565b60006136cd6136c8846143b3565b61438e565b9050828152602081018484840111156136e557600080fd5b6136f08482856145ec565b509392505050565b600061370b613706846143e4565b61438e565b90508281526020810184848401111561372357600080fd5b61372e8482856145ec565b509392505050565b60008135905061374581614f00565b92915050565b60008135905061375a81614f17565b92915050565b60008135905061376f81614f2e565b92915050565b60008151905061378481614f2e565b92915050565b600082601f83011261379b57600080fd5b81356137ab8482602086016136ba565b91505092915050565b600082601f8301126137c557600080fd5b81356137d58482602086016136f8565b91505092915050565b6000813590506137ed81614f45565b92915050565b60006020828403121561380557600080fd5b600061381384828501613736565b91505092915050565b6000806040838503121561382f57600080fd5b600061383d85828601613736565b925050602061384e85828601613736565b9150509250929050565b60008060006060848603121561386d57600080fd5b600061387b86828701613736565b935050602061388c86828701613736565b925050604061389d868287016137de565b9150509250925092565b600080600080608085870312156138bd57600080fd5b60006138cb87828801613736565b94505060206138dc87828801613736565b93505060406138ed878288016137de565b925050606085013567ffffffffffffffff81111561390a57600080fd5b6139168782880161378a565b91505092959194509250565b6000806040838503121561393557600080fd5b600061394385828601613736565b92505060206139548582860161374b565b9150509250929050565b6000806040838503121561397157600080fd5b600061397f85828601613736565b9250506020613990858286016137de565b9150509250929050565b6000602082840312156139ac57600080fd5b60006139ba84828501613760565b91505092915050565b6000602082840312156139d557600080fd5b60006139e384828501613775565b91505092915050565b6000602082840312156139fe57600080fd5b600082013567ffffffffffffffff811115613a1857600080fd5b613a24848285016137b4565b91505092915050565b600060208284031215613a3f57600080fd5b6000613a4d848285016137de565b91505092915050565b60008060408385031215613a6957600080fd5b6000613a77858286016137de565b9250506020613a8885828601613736565b9150509250929050565b613a9b81614578565b82525050565b613aaa8161458a565b82525050565b6000613abb82614415565b613ac5818561442b565b9350613ad58185602086016145fb565b613ade816147c7565b840191505092915050565b6000613af482614420565b613afe8185614447565b9350613b0e8185602086016145fb565b613b17816147c7565b840191505092915050565b6000613b2d82614420565b613b378185614458565b9350613b478185602086016145fb565b80840191505092915050565b6000613b60602b83614447565b9150613b6b826147d8565b604082019050919050565b6000613b83603283614447565b9150613b8e82614827565b604082019050919050565b6000613ba6602683614447565b9150613bb182614876565b604082019050919050565b6000613bc9602583614447565b9150613bd4826148c5565b604082019050919050565b6000613bec601c83614447565b9150613bf782614914565b602082019050919050565b6000613c0f602483614447565b9150613c1a8261493d565b604082019050919050565b6000613c32601983614447565b9150613c3d8261498c565b602082019050919050565b6000613c55602283614447565b9150613c60826149b5565b604082019050919050565b6000613c78601f83614447565b9150613c8382614a04565b602082019050919050565b6000613c9b602c83614447565b9150613ca682614a2d565b604082019050919050565b6000613cbe602a83614447565b9150613cc982614a7c565b604082019050919050565b6000613ce1603883614447565b9150613cec82614acb565b604082019050919050565b6000613d04602a83614447565b9150613d0f82614b1a565b604082019050919050565b6000613d27602983614447565b9150613d3282614b69565b604082019050919050565b6000613d4a602983614447565b9150613d5582614bb8565b604082019050919050565b6000613d6d602083614447565b9150613d7882614c07565b602082019050919050565b6000613d90602c83614447565b9150613d9b82614c30565b604082019050919050565b6000613db3602c83614447565b9150613dbe82614c7f565b604082019050919050565b6000613dd6602083614447565b9150613de182614cce565b602082019050919050565b6000613df9602f83614447565b9150613e0482614cf7565b604082019050919050565b6000613e1c602183614447565b9150613e2782614d46565b604082019050919050565b6000613e3f60008361443c565b9150613e4a82614d95565b600082019050919050565b6000613e62601083614447565b9150613e6d82614d98565b602082019050919050565b6000613e85603183614447565b9150613e9082614dc1565b604082019050919050565b6000613ea8602c83614447565b9150613eb382614e10565b604082019050919050565b6000613ecb603083614447565b9150613ed682614e5f565b604082019050919050565b6000613eee600f83614447565b9150613ef982614eae565b602082019050919050565b6000613f11601483614447565b9150613f1c82614ed7565b602082019050919050565b613f30816145e2565b82525050565b6000613f428285613b22565b9150613f4e8284613b22565b91508190509392505050565b6000613f6582613e32565b9150819050919050565b6000602082019050613f846000830184613a92565b92915050565b6000608082019050613f9f6000830187613a92565b613fac6020830186613a92565b613fb96040830185613f27565b8181036060830152613fcb8184613ab0565b905095945050505050565b6000602082019050613feb6000830184613aa1565b92915050565b6000602082019050818103600083015261400b8184613ae9565b905092915050565b6000602082019050818103600083015261402c81613b53565b9050919050565b6000602082019050818103600083015261404c81613b76565b9050919050565b6000602082019050818103600083015261406c81613b99565b9050919050565b6000602082019050818103600083015261408c81613bbc565b9050919050565b600060208201905081810360008301526140ac81613bdf565b9050919050565b600060208201905081810360008301526140cc81613c02565b9050919050565b600060208201905081810360008301526140ec81613c25565b9050919050565b6000602082019050818103600083015261410c81613c48565b9050919050565b6000602082019050818103600083015261412c81613c6b565b9050919050565b6000602082019050818103600083015261414c81613c8e565b9050919050565b6000602082019050818103600083015261416c81613cb1565b9050919050565b6000602082019050818103600083015261418c81613cd4565b9050919050565b600060208201905081810360008301526141ac81613cf7565b9050919050565b600060208201905081810360008301526141cc81613d1a565b9050919050565b600060208201905081810360008301526141ec81613d3d565b9050919050565b6000602082019050818103600083015261420c81613d60565b9050919050565b6000602082019050818103600083015261422c81613d83565b9050919050565b6000602082019050818103600083015261424c81613da6565b9050919050565b6000602082019050818103600083015261426c81613dc9565b9050919050565b6000602082019050818103600083015261428c81613dec565b9050919050565b600060208201905081810360008301526142ac81613e0f565b9050919050565b600060208201905081810360008301526142cc81613e55565b9050919050565b600060208201905081810360008301526142ec81613e78565b9050919050565b6000602082019050818103600083015261430c81613e9b565b9050919050565b6000602082019050818103600083015261432c81613ebe565b9050919050565b6000602082019050818103600083015261434c81613ee1565b9050919050565b6000602082019050818103600083015261436c81613f04565b9050919050565b60006020820190506143886000830184613f27565b92915050565b60006143986143a9565b90506143a48282614660565b919050565b6000604051905090565b600067ffffffffffffffff8211156143ce576143cd614798565b5b6143d7826147c7565b9050602081019050919050565b600067ffffffffffffffff8211156143ff576143fe614798565b5b614408826147c7565b9050602081019050919050565b600081519050919050565b600081519050919050565b600082825260208201905092915050565b600081905092915050565b600082825260208201905092915050565b600081905092915050565b600061446e826145e2565b9150614479836145e2565b9250827fffffffffffffffffffffffffffffffffffffffffffffffffffffffffffffffff038211156144ae576144ad61470b565b5b828201905092915050565b60006144c4826145e2565b91506144cf836145e2565b9250826144df576144de61473a565b5b828204905092915050565b60006144f5826145e2565b9150614500836145e2565b9250817fffffffffffffffffffffffffffffffffffffffffffffffffffffffffffffffff04831182151516156145395761453861470b565b5b828202905092915050565b600061454f826145e2565b915061455a836145e2565b92508282101561456d5761456c61470b565b5b828203905092915050565b6000614583826145c2565b9050919050565b60008115159050919050565b60007fffffffff0000000000000000000000000000000000000000000000000000000082169050919050565b600073ffffffffffffffffffffffffffffffffffffffff82169050919050565b6000819050919050565b82818337600083830152505050565b60005b838110156146195780820151818401526020810190506145fe565b83811115614628576000848401525b50505050565b6000600282049050600182168061464657607f821691505b6020821081141561465a57614659614769565b5b50919050565b614669826147c7565b810181811067ffffffffffffffff8211171561468857614687614798565b5b80604052505050565b600061469c826145e2565b91507fffffffffffffffffffffffffffffffffffffffffffffffffffffffffffffffff8214156146cf576146ce61470b565b5b600182019050919050565b60006146e5826145e2565b91506146f0836145e2565b925082614700576146ff61473a565b5b828206905092915050565b7f4e487b7100000000000000000000000000000000000000000000000000000000600052601160045260246000fd5b7f4e487b7100000000000000000000000000000000000000000000000000000000600052601260045260246000fd5b7f4e487b7100000000000000000000000000000000000000000000000000000000600052602260045260246000fd5b7f4e487b7100000000000000000000000000000000000000000000000000000000600052604160045260246000fd5b6000601f19601f8301169050919050565b7f455243373231456e756d657261626c653a206f776e657220696e646578206f7560008201527f74206f6620626f756e6473000000000000000000000000000000000000000000602082015250565b7f4552433732313a207472616e7366657220746f206e6f6e20455243373231526560008201527f63656976657220696d706c656d656e7465720000000000000000000000000000602082015250565b7f4f776e61626c653a206e6577206f776e657220697320746865207a65726f206160008201527f6464726573730000000000000000000000000000000000000000000000000000602082015250565b7f4552433732313a207472616e736665722066726f6d20696e636f72726563742060008201527f6f776e6572000000000000000000000000000000000000000000000000000000602082015250565b7f4552433732313a20746f6b656e20616c7265616479206d696e74656400000000600082015250565b7f4552433732313a207472616e7366657220746f20746865207a65726f2061646460008201527f7265737300000000000000000000000000000000000000000000000000000000602082015250565b7f4552433732313a20617070726f766520746f2063616c6c657200000000000000600082015250565b7f43616c6c6572206973206e6f7420746865206f776e6572206f72206d616e616760008201527f6572000000000000000000000000000000000000000000000000000000000000602082015250565b7f45746865722076616c75652073656e74206973206e6f7420636f727265637400600082015250565b7f4552433732313a206f70657261746f7220717565727920666f72206e6f6e657860008201527f697374656e7420746f6b656e0000000000000000000000000000000000000000602082015250565b7f507572636861736520776f756c64206578656564206d6178207061737365732060008201527f7065722077616c6c657400000000000000000000000000000000000000000000602082015250565b7f4552433732313a20617070726f76652063616c6c6572206973206e6f74206f7760008201527f6e6572206e6f7220617070726f76656420666f7220616c6c0000000000000000602082015250565b7f4552433732313a2062616c616e636520717565727920666f7220746865207a6560008201527f726f206164647265737300000000000000000000000000000000000000000000602082015250565b7f4552433732313a206f776e657220717565727920666f72206e6f6e657869737460008201527f656e7420746f6b656e0000000000000000000000000000000000000000000000602082015250565b7f596f752063616e206f6e6c79206d696e74203120416c70686120436c6173732060008201527f617420612074696d650000000000000000000000000000000000000000000000602082015250565b7f4552433732313a206d696e7420746f20746865207a65726f2061646472657373600082015250565b7f53616c65206d7573742062652061637469766520746f206d696e7420416c706860008201527f6120436c61737320506173730000000000000000000000000000000000000000602082015250565b7f4552433732313a20617070726f76656420717565727920666f72206e6f6e657860008201527f697374656e7420746f6b656e0000000000000000000000000000000000000000602082015250565b7f4f776e61626c653a2063616c6c6572206973206e6f7420746865206f776e6572600082015250565b7f4552433732314d657461646174613a2055524920717565727920666f72206e6f60008201527f6e6578697374656e7420746f6b656e0000000000000000000000000000000000602082015250565b7f4552433732313a20617070726f76616c20746f2063757272656e74206f776e6560008201527f7200000000000000000000000000000000000000000000000000000000000000602082015250565b50565b7f5472616e73666572206661696c65642e00000000000000000000000000000000600082015250565b7f4552433732313a207472616e736665722063616c6c6572206973206e6f74206f60008201527f776e6572206e6f7220617070726f766564000000000000000000000000000000602082015250565b7f455243373231456e756d657261626c653a20676c6f62616c20696e646578206f60008201527f7574206f6620626f756e64730000000000000000000000000000000000000000602082015250565b7f4552433732314275726e61626c653a2063616c6c6572206973206e6f74206f7760008201527f6e6572206e6f7220617070726f76656400000000000000000000000000000000602082015250565b7f42616c616e6365206973207a65726f0000000000000000000000000000000000600082015250565b7f416c70686120436c61737320536f6c64204f7574000000000000000000000000600082015250565b614f0981614578565b8114614f1457600080fd5b50565b614f208161458a565b8114614f2b57600080fd5b50565b614f3781614596565b8114614f4257600080fd5b50565b614f4e816145e2565b8114614f5957600080fd5b5056fea2646970667358221220005fb6d3af45a7fc990f209b13738c45ffb4682d926baf3e6b7637944682204d64736f6c63430008040033",
  "linkReferences": {},
  "deployedLinkReferences": {}
}